{
  "contractName": "StubToken",
  "abi": [
    {
      "constant": true,
      "inputs": [],
      "name": "name",
      "outputs": [
        {
          "name": "",
          "type": "string"
        }
      ],
      "payable": false,
      "stateMutability": "view",
      "type": "function"
    },
    {
      "constant": true,
      "inputs": [
        {
          "name": "_tokenId",
          "type": "uint256"
        }
      ],
      "name": "getApproved",
      "outputs": [
        {
          "name": "",
          "type": "address"
        }
      ],
      "payable": false,
      "stateMutability": "view",
      "type": "function"
    },
    {
      "constant": false,
      "inputs": [
        {
          "name": "_to",
          "type": "address"
        },
        {
          "name": "_tokenId",
          "type": "uint256"
        }
      ],
      "name": "approve",
      "outputs": [],
      "payable": false,
      "stateMutability": "nonpayable",
      "type": "function"
    },
    {
      "constant": true,
      "inputs": [
        {
          "name": "",
          "type": "uint256"
        }
      ],
      "name": "events",
      "outputs": [
        {
          "name": "artist",
          "type": "address"
        },
        {
          "name": "name",
          "type": "bytes32"
        },
        {
          "name": "location",
          "type": "bytes32"
        },
        {
          "name": "price",
          "type": "uint256"
        },
        {
          "name": "time",
          "type": "uint256"
        },
        {
          "name": "salesCap",
          "type": "uint256"
        }
      ],
      "payable": false,
      "stateMutability": "view",
      "type": "function"
    },
    {
      "constant": true,
      "inputs": [],
      "name": "totalSupply",
      "outputs": [
        {
          "name": "",
          "type": "uint256"
        }
      ],
      "payable": false,
      "stateMutability": "view",
      "type": "function"
    },
    {
      "constant": false,
      "inputs": [
        {
          "name": "_from",
          "type": "address"
        },
        {
          "name": "_to",
          "type": "address"
        },
        {
          "name": "_tokenId",
          "type": "uint256"
        }
      ],
      "name": "transferFrom",
      "outputs": [],
      "payable": false,
      "stateMutability": "nonpayable",
      "type": "function"
    },
    {
      "constant": true,
      "inputs": [
        {
          "name": "_owner",
          "type": "address"
        },
        {
          "name": "_index",
          "type": "uint256"
        }
      ],
      "name": "tokenOfOwnerByIndex",
      "outputs": [
        {
          "name": "",
          "type": "uint256"
        }
      ],
      "payable": false,
      "stateMutability": "view",
      "type": "function"
    },
    {
      "constant": false,
      "inputs": [
        {
          "name": "_from",
          "type": "address"
        },
        {
          "name": "_to",
          "type": "address"
        },
        {
          "name": "_tokenId",
          "type": "uint256"
        }
      ],
      "name": "safeTransferFrom",
      "outputs": [],
      "payable": false,
      "stateMutability": "nonpayable",
      "type": "function"
    },
    {
      "constant": true,
      "inputs": [
        {
          "name": "_tokenId",
          "type": "uint256"
        }
      ],
      "name": "exists",
      "outputs": [
        {
          "name": "",
          "type": "bool"
        }
      ],
      "payable": false,
      "stateMutability": "view",
      "type": "function"
    },
    {
      "constant": true,
      "inputs": [
        {
          "name": "_index",
          "type": "uint256"
        }
      ],
      "name": "tokenByIndex",
      "outputs": [
        {
          "name": "",
          "type": "uint256"
        }
      ],
      "payable": false,
      "stateMutability": "view",
      "type": "function"
    },
    {
      "constant": true,
      "inputs": [
        {
          "name": "",
          "type": "uint256"
        }
      ],
      "name": "tickets",
      "outputs": [
        {
          "name": "eventId",
          "type": "uint256"
        },
        {
          "name": "price",
          "type": "uint256"
        }
      ],
      "payable": false,
      "stateMutability": "view",
      "type": "function"
    },
    {
      "constant": true,
      "inputs": [
        {
          "name": "_tokenId",
          "type": "uint256"
        }
      ],
      "name": "ownerOf",
      "outputs": [
        {
          "name": "",
          "type": "address"
        }
      ],
      "payable": false,
      "stateMutability": "view",
      "type": "function"
    },
    {
      "constant": true,
      "inputs": [
        {
          "name": "_owner",
          "type": "address"
        }
      ],
      "name": "balanceOf",
      "outputs": [
        {
          "name": "",
          "type": "uint256"
        }
      ],
      "payable": false,
      "stateMutability": "view",
      "type": "function"
    },
    {
      "constant": false,
      "inputs": [],
      "name": "renounceOwnership",
      "outputs": [],
      "payable": false,
      "stateMutability": "nonpayable",
      "type": "function"
    },
    {
      "constant": true,
      "inputs": [],
      "name": "owner",
      "outputs": [
        {
          "name": "",
          "type": "address"
        }
      ],
      "payable": false,
      "stateMutability": "view",
      "type": "function"
    },
    {
      "constant": true,
      "inputs": [],
      "name": "symbol",
      "outputs": [
        {
          "name": "",
          "type": "string"
        }
      ],
      "payable": false,
      "stateMutability": "view",
      "type": "function"
    },
    {
      "constant": false,
      "inputs": [
        {
          "name": "_to",
          "type": "address"
        },
        {
          "name": "_approved",
          "type": "bool"
        }
      ],
      "name": "setApprovalForAll",
      "outputs": [],
      "payable": false,
      "stateMutability": "nonpayable",
      "type": "function"
    },
    {
      "constant": false,
      "inputs": [
        {
          "name": "_from",
          "type": "address"
        },
        {
          "name": "_to",
          "type": "address"
        },
        {
          "name": "_tokenId",
          "type": "uint256"
        },
        {
          "name": "_data",
          "type": "bytes"
        }
      ],
      "name": "safeTransferFrom",
      "outputs": [],
      "payable": false,
      "stateMutability": "nonpayable",
      "type": "function"
    },
    {
      "constant": true,
      "inputs": [
        {
          "name": "_tokenId",
          "type": "uint256"
        }
      ],
      "name": "tokenURI",
      "outputs": [
        {
          "name": "",
          "type": "string"
        }
      ],
      "payable": false,
      "stateMutability": "view",
      "type": "function"
    },
    {
      "constant": true,
      "inputs": [
        {
          "name": "_owner",
          "type": "address"
        },
        {
          "name": "_operator",
          "type": "address"
        }
      ],
      "name": "isApprovedForAll",
      "outputs": [
        {
          "name": "",
          "type": "bool"
        }
      ],
      "payable": false,
      "stateMutability": "view",
      "type": "function"
    },
    {
      "constant": false,
      "inputs": [
        {
          "name": "_newOwner",
          "type": "address"
        }
      ],
      "name": "transferOwnership",
      "outputs": [],
      "payable": false,
      "stateMutability": "nonpayable",
      "type": "function"
    },
    {
      "inputs": [
        {
          "name": "_name",
          "type": "string"
        },
        {
          "name": "_symbol",
          "type": "string"
        }
      ],
      "payable": false,
      "stateMutability": "nonpayable",
      "type": "constructor"
    },
    {
      "anonymous": false,
      "inputs": [
        {
          "indexed": false,
          "name": "_eventId",
          "type": "uint256"
        }
      ],
      "name": "NewEvent",
      "type": "event"
    },
    {
      "anonymous": false,
      "inputs": [
        {
          "indexed": true,
          "name": "previousOwner",
          "type": "address"
        }
      ],
      "name": "OwnershipRenounced",
      "type": "event"
    },
    {
      "anonymous": false,
      "inputs": [
        {
          "indexed": true,
          "name": "previousOwner",
          "type": "address"
        },
        {
          "indexed": true,
          "name": "newOwner",
          "type": "address"
        }
      ],
      "name": "OwnershipTransferred",
      "type": "event"
    },
    {
      "anonymous": false,
      "inputs": [
        {
          "indexed": true,
          "name": "_from",
          "type": "address"
        },
        {
          "indexed": true,
          "name": "_to",
          "type": "address"
        },
        {
          "indexed": false,
          "name": "_tokenId",
          "type": "uint256"
        }
      ],
      "name": "Transfer",
      "type": "event"
    },
    {
      "anonymous": false,
      "inputs": [
        {
          "indexed": true,
          "name": "_owner",
          "type": "address"
        },
        {
          "indexed": true,
          "name": "_approved",
          "type": "address"
        },
        {
          "indexed": false,
          "name": "_tokenId",
          "type": "uint256"
        }
      ],
      "name": "Approval",
      "type": "event"
    },
    {
      "anonymous": false,
      "inputs": [
        {
          "indexed": true,
          "name": "_owner",
          "type": "address"
        },
        {
          "indexed": true,
          "name": "_operator",
          "type": "address"
        },
        {
          "indexed": false,
          "name": "_approved",
          "type": "bool"
        }
      ],
      "name": "ApprovalForAll",
      "type": "event"
    },
    {
      "constant": true,
      "inputs": [
        {
          "name": "_ticketId",
          "type": "uint256"
        }
      ],
      "name": "getTicket",
      "outputs": [
        {
          "name": "eventId",
          "type": "uint256"
        },
        {
          "name": "price",
          "type": "uint256"
        }
      ],
      "payable": false,
      "stateMutability": "view",
      "type": "function"
    },
    {
      "constant": true,
      "inputs": [
        {
          "name": "_eventId",
          "type": "uint256"
        }
      ],
      "name": "getEvent",
      "outputs": [
        {
          "name": "artist",
          "type": "address"
        },
        {
          "name": "name",
          "type": "bytes32"
        },
        {
          "name": "location",
          "type": "bytes32"
        },
        {
          "name": "price",
          "type": "uint256"
        },
        {
          "name": "time",
          "type": "uint256"
        },
        {
          "name": "sales",
          "type": "uint256"
        },
        {
          "name": "salesCap",
          "type": "uint256"
        }
      ],
      "payable": false,
      "stateMutability": "view",
      "type": "function"
    },
    {
      "constant": true,
      "inputs": [
        {
          "name": "_ticketId",
          "type": "uint256"
        }
      ],
      "name": "getTicketDetails",
      "outputs": [
        {
          "name": "artist",
          "type": "address"
        },
        {
          "name": "name",
          "type": "bytes32"
        },
        {
          "name": "location",
          "type": "bytes32"
        },
        {
          "name": "price",
          "type": "uint256"
        },
        {
          "name": "time",
          "type": "uint256"
        }
      ],
      "payable": false,
      "stateMutability": "view",
      "type": "function"
    },
    {
      "constant": false,
      "inputs": [
        {
          "name": "_artist",
          "type": "address"
        },
        {
          "name": "_name",
          "type": "bytes32"
        },
        {
          "name": "_location",
          "type": "bytes32"
        },
        {
          "name": "_price",
          "type": "uint256"
        },
        {
          "name": "_time",
          "type": "uint256"
        },
        {
          "name": "_salesCap",
          "type": "uint256"
        }
      ],
      "name": "createEvent",
      "outputs": [],
      "payable": false,
      "stateMutability": "nonpayable",
      "type": "function"
    },
    {
      "constant": false,
      "inputs": [
        {
          "name": "_eventId",
          "type": "uint256"
        }
      ],
      "name": "purchaseTicket",
      "outputs": [],
      "payable": true,
      "stateMutability": "payable",
      "type": "function"
    },
    {
      "constant": true,
      "inputs": [
        {
          "name": "_eventId",
          "type": "uint256"
        }
      ],
      "name": "priceOf",
      "outputs": [
        {
          "name": "_price",
          "type": "uint256"
        }
      ],
      "payable": false,
      "stateMutability": "view",
      "type": "function"
    },
    {
      "constant": true,
      "inputs": [
        {
          "name": "_owner",
          "type": "address"
        }
      ],
      "name": "ticketsOf",
      "outputs": [
        {
          "name": "",
          "type": "uint256[]"
        }
      ],
      "payable": false,
      "stateMutability": "view",
      "type": "function"
    },
    {
      "constant": true,
      "inputs": [],
      "name": "totalEventSupply",
      "outputs": [
        {
          "name": "_totalSupply",
          "type": "uint256"
        }
      ],
      "payable": false,
      "stateMutability": "view",
      "type": "function"
    },
    {
      "constant": true,
      "inputs": [],
      "name": "getAllEvents",
      "outputs": [
        {
          "name": "",
          "type": "address[]"
        },
        {
          "name": "",
          "type": "bytes32[]"
        },
        {
          "name": "",
          "type": "bytes32[]"
        },
        {
          "name": "",
          "type": "uint256[]"
        },
        {
          "name": "",
          "type": "uint256[]"
        },
        {
          "name": "",
          "type": "uint256[]"
        },
        {
          "name": "",
          "type": "uint256[]"
        }
      ],
      "payable": false,
      "stateMutability": "view",
      "type": "function"
    },
    {
      "constant": false,
      "inputs": [
        {
          "name": "_eventId",
          "type": "uint256"
        }
      ],
      "name": "withdrawBalance",
      "outputs": [],
      "payable": false,
      "stateMutability": "nonpayable",
      "type": "function"
    }
  ],
  "bytecode": "0x60806040523480156200001157600080fd5b50604051620023ea380380620023ea8339810160405280516020808301519183018051909392909201918391839162000051916004919085019062000085565b5080516200006790600590602084019062000085565b5050600b8054600160a060020a03191633179055506200012a915050565b828054600181600116156101000203166002900490600052602060002090601f016020900481019282601f10620000c857805160ff1916838001178555620000f8565b82800160010185558215620000f8579182015b82811115620000f8578251825591602001919060010190620000db565b50620001069291506200010a565b5090565b6200012791905b8082111562000106576000815560010162000111565b90565b6122b0806200013a6000396000f30060806040526004361061018a5763ffffffff7c010000000000000000000000000000000000000000000000000000000060003504166306fdde03811461018f578063081812fc14610219578063095ea7b31461024d5780630b7914301461027357806318160ddd146102c857806323b872dd146102ef57806324c14160146103195780632f745c5914610366578063316579261461038a57806342842e0e146103fb5780634f558e79146104255780634f6ccce71461045157806350b44712146104695780636352211e1461049a5780636d1884e0146104b257806370a082311461050c578063715018a61461052d5780637dc379fa1461054257806383d420a11461055a5780638da5cb5b1461058a57806395d89b411461059f578063a098300a146105b4578063a22cb465146105c9578063b88d4fde146105ef578063b9186d7d1461065e578063b948348c14610676578063c27a500d14610681578063c87b56dd14610888578063da76d5cd146108a0578063e985e9c5146108b8578063f2fde38b146108df575b600080fd5b34801561019b57600080fd5b506101a4610900565b6040805160208082528351818301528351919283929083019185019080838360005b838110156101de5781810151838201526020016101c6565b50505050905090810190601f16801561020b5780820380516001836020036101000a031916815260200191505b509250505060405180910390f35b34801561022557600080fd5b50610231600435610997565b60408051600160a060020a039092168252519081900360200190f35b34801561025957600080fd5b50610271600160a060020a03600435166024356109b2565b005b34801561027f57600080fd5b5061028b600435610aa4565b60408051600160a060020a0390971687526020870195909552858501939093526060850191909152608084015260a0830152519081900360c00190f35b3480156102d457600080fd5b506102dd610af2565b60408051918252519081900360200190f35b3480156102fb57600080fd5b50610271600160a060020a0360043581169060243516604435610af8565b34801561032557600080fd5b50610331600435610ba7565b60408051600160a060020a03909616865260208601949094528484019290925260608401526080830152519081900360a00190f35b34801561037257600080fd5b506102dd600160a060020a0360043516602435610c8a565b34801561039657600080fd5b506103ab600160a060020a0360043516610cd7565b60408051602080825283518183015283519192839290830191858101910280838360005b838110156103e75781810151838201526020016103cf565b505050509050019250505060405180910390f35b34801561040757600080fd5b50610271600160a060020a0360043581169060243516604435610d8c565b34801561043157600080fd5b5061043d600435610dc4565b604080519115158252519081900360200190f35b34801561045d57600080fd5b506102dd600435610de1565b34801561047557600080fd5b50610481600435610e16565b6040805192835260208301919091528051918290030190f35b3480156104a657600080fd5b50610231600435610e42565b3480156104be57600080fd5b506104ca600435610e6c565b60408051600160a060020a0390981688526020880196909652868601949094526060860192909252608085015260a084015260c0830152519081900360e00190f35b34801561051857600080fd5b506102dd600160a060020a0360043516610f66565b34801561053957600080fd5b50610271610f99565b34801561054e57600080fd5b50610481600435611007565b34801561056657600080fd5b50610271600160a060020a036004351660243560443560643560843560a435611058565b34801561059657600080fd5b50610231611213565b3480156105ab57600080fd5b506101a4611222565b3480156105c057600080fd5b506102dd611283565b3480156105d557600080fd5b50610271600160a060020a03600435166024351515611289565b3480156105fb57600080fd5b50604080516020601f60643560048181013592830184900484028501840190955281845261027194600160a060020a03813581169560248035909216956044359536956084940191819084018382808284375094975061130d9650505050505050565b34801561066a57600080fd5b506102dd60043561134c565b6102716004356113cd565b34801561068d57600080fd5b50610696611595565b604051808060200180602001806020018060200180602001806020018060200188810388528f818151815260200191508051906020019060200280838360005b838110156106ee5781810151838201526020016106d6565b5050505090500188810387528e818151815260200191508051906020019060200280838360005b8381101561072d578181015183820152602001610715565b5050505090500188810386528d818151815260200191508051906020019060200280838360005b8381101561076c578181015183820152602001610754565b5050505090500188810385528c818151815260200191508051906020019060200280838360005b838110156107ab578181015183820152602001610793565b5050505090500188810384528b818151815260200191508051906020019060200280838360005b838110156107ea5781810151838201526020016107d2565b5050505090500188810383528a818151815260200191508051906020019060200280838360005b83811015610829578181015183820152602001610811565b50505050905001888103825289818151815260200191508051906020019060200280838360005b83811015610868578181015183820152602001610850565b505050509050019e50505050505050505050505050505060405180910390f35b34801561089457600080fd5b506101a46004356118b4565b3480156108ac57600080fd5b50610271600435611969565b3480156108c457600080fd5b5061043d600160a060020a0360043581169060243516611b16565b3480156108eb57600080fd5b50610271600160a060020a0360043516611b44565b60048054604080516020601f600260001961010060018816150201909516949094049384018190048102820181019092528281526060939092909183018282801561098c5780601f106109615761010080835404028352916020019161098c565b820191906000526020600020905b81548152906001019060200180831161096f57829003601f168201915b505050505090505b90565b600090815260016020526040902054600160a060020a031690565b60006109bd82610e42565b9050600160a060020a0383811690821614156109d857600080fd5b33600160a060020a03821614806109f457506109f48133611b16565b15156109ff57600080fd5b6000610a0a83610997565b600160a060020a0316141580610a285750600160a060020a03831615155b15610a9f57600082815260016020908152604091829020805473ffffffffffffffffffffffffffffffffffffffff1916600160a060020a03878116918217909255835186815293519093918516927f8c5be1e5ebec7d5bd14f71427d1e84f3dd0314c0f7b2291e5b200ac8c7c3b925928290030190a35b505050565b600d805482908110610ab257fe5b6000918252602090912060069091020180546001820154600283015460038401546004850154600590950154600160a060020a0390941695509193909286565b60085490565b80610b033382611b67565b1515610b0e57600080fd5b600160a060020a0384161515610b2357600080fd5b600160a060020a0383161515610b3857600080fd5b610b428483611bc6565b610b4c8483611c74565b610b568383611dad565b82600160a060020a031684600160a060020a03167fddf252ad1be2c89b69c2b068fc378daa952ba7f163c4a11628f55a4df523b3ef846040518082815260200191505060405180910390a350505050565b6000806000806000610bb76121fb565b610bbf612212565b600c805489908110610bcd57fe5b9060005260206000209060020201604080519081016040529081600082015481526020016001820154815250509150600d8260000151815481101515610c0f57fe5b60009182526020918290206040805160c08101825260069093029091018054600160a060020a03168084526001820154948401859052600282015492840183905260038201546060850181905260048301546080860181905260059093015460a0909501949094529c939b5090995090975095509350505050565b6000610c9583610f66565b8210610ca057600080fd5b600160a060020a0383166000908152600660205260409020805483908110610cc457fe5b9060005260206000200154905092915050565b600160a060020a0381166000908152600f6020526040812054606091829080831515610d13576040805160008152602081019091529450610d83565b83604051908082528060200260200182016040528015610d3d578160200160208202803883390190505b50925060009150600090505b83811015610d7f57610d5b8682610c8a565b8383815181101515610d6957fe5b6020908102909101015260019182019101610d49565b8294505b50505050919050565b80610d973382611b67565b1515610da257600080fd5b610dbe848484602060405190810160405280600081525061130d565b50505050565b600090815260208190526040902054600160a060020a0316151590565b6000610deb610af2565b8210610df657600080fd5b6008805483908110610e0457fe5b90600052602060002001549050919050565b600c805482908110610e2457fe5b60009182526020909120600290910201805460019091015490915082565b600081815260208190526040812054600160a060020a0316801515610e6657600080fd5b92915050565b6000806000806000806000610e7f612212565b600d80548a908110610e8d57fe5b906000526020600020906006020160c060405190810160405290816000820160009054906101000a9004600160a060020a0316600160a060020a0316600160a060020a03168152602001600182015460001916600019168152602001600282015460001916600019168152602001600382015481526020016004820154815260200160058201548152505090508060000151975080602001519650806040015195508060600151945080608001519350600e60008a81526020019081526020016000205492508060a00151915050919395979092949650565b6000600160a060020a0382161515610f7d57600080fd5b50600160a060020a031660009081526002602052604090205490565b600b54600160a060020a03163314610fb057600080fd5b600b54604051600160a060020a03909116907ff8df31144d9c2f0f6b59d69b8b98abd5459d07f2742c4df920b25aae33c6482090600090a2600b805473ffffffffffffffffffffffffffffffffffffffff19169055565b6000806110126121fb565b600c80548590811061102057fe5b600091825260209182902060408051808201909152600290920201805480835260019091015491909201819052909590945092505050565b611060612212565b600b54600090600160a060020a0316331461107a57600080fd5b50506040805160c081018252600160a060020a0388811682526020808301898152838501898152606085018981526080860189815260a08701898152600d805460018101825560009190915288517fd7b6990105719101dabeb77144f2a3385c8033acd3af97e9423a695e81ad1eb560068302908101805473ffffffffffffffffffffffffffffffffffffffff191692909a169190911790985594517fd7b6990105719101dabeb77144f2a3385c8033acd3af97e9423a695e81ad1eb688015592517fd7b6990105719101dabeb77144f2a3385c8033acd3af97e9423a695e81ad1eb787015590517fd7b6990105719101dabeb77144f2a3385c8033acd3af97e9423a695e81ad1eb8860155517fd7b6990105719101dabeb77144f2a3385c8033acd3af97e9423a695e81ad1eb9850155517fd7b6990105719101dabeb77144f2a3385c8033acd3af97e9423a695e81ad1eba9093019290925583518281529351929391927f379a07a38bf096930c6d57649755929ea36a303509514a5580b7b2f8151d18af9281900390910190a15050505050505050565b600b54600160a060020a031681565b60058054604080516020601f600260001961010060018816150201909516949094049384018190048102820181019092528281526060939092909183018282801561098c5780601f106109615761010080835404028352916020019161098c565b600d5490565b600160a060020a03821633141561129f57600080fd5b336000818152600360209081526040808320600160a060020a03871680855290835292819020805460ff1916861515908117909155815190815290519293927f17307eab39ab6107e8899845ad3d59bd9653f200f220920489ca2b5937696c31929181900390910190a35050565b816113183382611b67565b151561132357600080fd5b61132e858585610af8565b61133a85858585611df6565b151561134557600080fd5b5050505050565b6000611356612212565b600d80548490811061136457fe5b60009182526020918290206040805160c0810182526006939093029091018054600160a060020a031683526001810154938301939093526002830154908201526003820154606082018190526004830154608083015260059092015460a0909101529392505050565b6113d5612212565b60006113df6121fb565b600080600d868154811015156113f157fe5b600091825260208083206040805160c08101825260069094029091018054600160a060020a031684526001810154848401526002810154848301526003810154606085018190526004820154608086015260059091015460a085019081528b8652600e90935293205490519197509195501161146c57600080fd5b3484111561147957600080fd5b6040805180820190915286815260208101858152600c80546001810182556000919091528251600282027fdf6966c971051c3d54ec59162606531493a51404a002842f56009d7e5cf4a8c781019190915591517fdf6966c971051c3d54ec59162606531493a51404a002842f56009d7e5cf4a8c89092019190915590935091506115033383611f7f565b6000868152600e6020908152604080832080546001908101909155338452600f90925290912080549091019055611540348563ffffffff611fce16565b600087815260106020526040812080548701905590915081111561158d57604051339082156108fc029083906000818181858888f1935050505015801561158b573d6000803e3d6000fd5b505b505050505050565b60608060608060608060606000606080606080606080606060006115b7611283565b9850886040519080825280602002602001820160405280156115e3578160200160208202803883390190505b50975088604051908082528060200260200182016040528015611610578160200160208202803883390190505b5096508860405190808252806020026020018201604052801561163d578160200160208202803883390190505b5095508860405190808252806020026020018201604052801561166a578160200160208202803883390190505b50945088604051908082528060200260200182016040528015611697578160200160208202803883390190505b509350886040519080825280602002602001820160405280156116c4578160200160208202803883390190505b509250886040519080825280602002602001820160405280156116f1578160200160208202803883390190505b509150600090505b8881101561189c57600d80548290811061170f57fe5b60009182526020909120600690910201548851600160a060020a039091169089908390811061173a57fe5b600160a060020a03909216602092830290910190910152600d80548290811061175f57fe5b906000526020600020906006020160010154878281518110151561177f57fe5b60209081029091010152600d80548290811061179757fe5b90600052602060002090600602016002015486828151811015156117b757fe5b60209081029091010152600d8054829081106117cf57fe5b90600052602060002090600602016003015485828151811015156117ef57fe5b60209081029091010152600d80548290811061180757fe5b906000526020600020906006020160040154848281518110151561182757fe5b60209081029091018101919091526000828152600e9091526040902054835184908390811061185257fe5b60209081029091010152600d80548290811061186a57fe5b906000526020600020906006020160050154828281518110151561188a57fe5b602090810290910101526001016116f9565b50959e949d50929b5090995097509550909350915050565b60606118bf82610dc4565b15156118ca57600080fd5b6000828152600a602090815260409182902080548351601f60026000196101006001861615020190931692909204918201849004840281018401909452808452909183018282801561195d5780601f106119325761010080835404028352916020019161195d565b820191906000526020600020905b81548152906001019060200180831161194057829003601f168201915b50505050509050919050565b611971612212565b6000808361197d612212565b600d80548390811061198b57fe5b60009182526020918290206040805160c08101825260069093029091018054600160a060020a031680845260018201549484019490945260028101549183019190915260038101546060830152600481015460808301526005015460a0820152915033146119f857600080fd5b600d805487908110611a0657fe5b600091825260208083206040805160c08101825260069094029091018054600160a060020a0316845260018101548484015260028101548483015260038101546060850152600481015460808501526005015460a08401528984526010909152909120548151919650945092503031841115611a8157600080fd5b600086815260106020526040812055600160a060020a0383161515611ae057600b54604051600160a060020a039091169085156108fc029086906000818181858888f19350505050158015611ada573d6000803e3d6000fd5b5061158d565b604051600160a060020a0384169085156108fc029086906000818181858888f1935050505015801561158b573d6000803e3d6000fd5b600160a060020a03918216600090815260036020908152604080832093909416825291909152205460ff1690565b600b54600160a060020a03163314611b5b57600080fd5b611b6481611fe0565b50565b600080611b7383610e42565b905080600160a060020a031684600160a060020a03161480611bae575083600160a060020a0316611ba384610997565b600160a060020a0316145b80611bbe5750611bbe8185611b16565b949350505050565b81600160a060020a0316611bd982610e42565b600160a060020a031614611bec57600080fd5b600081815260016020526040902054600160a060020a031615611c70576000818152600160209081526040808320805473ffffffffffffffffffffffffffffffffffffffff1916905580518481529051600160a060020a038616927f8c5be1e5ebec7d5bd14f71427d1e84f3dd0314c0f7b2291e5b200ac8c7c3b925928290030190a35b5050565b6000806000611c83858561205e565b600084815260076020908152604080832054600160a060020a0389168452600690925290912054909350611cbe90600163ffffffff611fce16565b600160a060020a038616600090815260066020526040902080549193509083908110611ce657fe5b90600052602060002001549050806006600087600160a060020a0316600160a060020a0316815260200190815260200160002084815481101515611d2657fe5b6000918252602080832090910192909255600160a060020a0387168152600690915260408120805484908110611d5857fe5b6000918252602080832090910192909255600160a060020a0387168152600690915260409020805490611d8f906000198301612247565b50600093845260076020526040808520859055908452909220555050565b6000611db983836120f3565b50600160a060020a039091166000908152600660209081526040808320805460018101825590845282842081018590559383526007909152902055565b600080611e0b85600160a060020a0316612182565b1515611e1a5760019150611f76565b84600160a060020a031663f0b9e5ba8786866040518463ffffffff167c01000000000000000000000000000000000000000000000000000000000281526004018084600160a060020a0316600160a060020a0316815260200183815260200180602001828103825283818151815260200191508051906020019080838360005b83811015611eb2578181015183820152602001611e9a565b50505050905090810190601f168015611edf5780820380516001836020036101000a031916815260200191505b50945050505050602060405180830381600087803b158015611f0057600080fd5b505af1158015611f14573d6000803e3d6000fd5b505050506040513d6020811015611f2a57600080fd5b50517fffffffff0000000000000000000000000000000000000000000000000000000081167ff0b9e5ba0000000000000000000000000000000000000000000000000000000014925090505b50949350505050565b611f89828261218a565b600880546000838152600960205260408120829055600182018355919091527ff3f7a9fe364faab93b216da50a3214154f22a0a2b415b23a84c8169e8b636ee3015550565b600082821115611fda57fe5b50900390565b600160a060020a0381161515611ff557600080fd5b600b54604051600160a060020a038084169216907f8be0079c531659141344cd1fd0a4f28419497f9722a3daafe3b4186f6b6457e090600090a3600b805473ffffffffffffffffffffffffffffffffffffffff1916600160a060020a0392909216919091179055565b81600160a060020a031661207182610e42565b600160a060020a03161461208457600080fd5b600160a060020a0382166000908152600260205260409020546120ae90600163ffffffff611fce16565b600160a060020a039092166000908152600260209081526040808320949094559181529081905220805473ffffffffffffffffffffffffffffffffffffffff19169055565b600081815260208190526040902054600160a060020a03161561211557600080fd5b600081815260208181526040808320805473ffffffffffffffffffffffffffffffffffffffff1916600160a060020a038716908117909155835260029091529020546121629060016121ee565b600160a060020a0390921660009081526002602052604090209190915550565b6000903b1190565b600160a060020a038216151561219f57600080fd5b6121a98282611dad565b604080518281529051600160a060020a038416916000917fddf252ad1be2c89b69c2b068fc378daa952ba7f163c4a11628f55a4df523b3ef9181900360200190a35050565b81810182811015610e6657fe5b604080518082019091526000808252602082015290565b6040805160c081018252600080825260208201819052918101829052606081018290526080810182905260a081019190915290565b815481835581811115610a9f57600083815260209020610a9f91810190830161099491905b80821115612280576000815560010161226c565b50905600a165627a7a723058202d4c5a105cc285ef9255949b6c8ac64583017fd9e90b295569db58845fb49c820029",
  "source": "pragma solidity ^0.4.23;\n\nimport \"zeppelin-solidity/contracts/token/ERC721/ERC721Token.sol\";\nimport \"zeppelin-solidity/contracts/ownership/Ownable.sol\";\n\ncontract StubToken is ERC721Token, Ownable {\n\n    constructor(string _name,string _symbol)\n    ERC721Token(_name, _symbol) public {\n\n    }\n\n    event NewEvent(uint _eventId);\n\n    struct Ticket {\n        uint eventId;\n        uint price;\n    }\n\n    struct Event {\n        address artist;\n        bytes32 name;\n        bytes32 location;\n        uint price;\n        uint time;\n        uint salesCap;\n    }\n\n    Ticket[] public tickets;\n    Event[] public events;\n\n    mapping (uint => uint) private totalEventSales;\n    mapping (address => uint) private totalOwnedTickets;\n    mapping (uint => uint) private eventRevenue;\n\n    modifier onlyArtist(uint _eventId) {\n        Event memory _event = events[_eventId];\n        require(msg.sender == _event.artist);\n        _;\n    }\n\n    /// @dev Returns the general ticket details for a given ticket ID\n    /// @param _ticketId ID of the ticket (ERC721 token)\n    function getTicket(uint _ticketId) public view returns(uint eventId, uint price) {\n        Ticket memory _ticket = tickets[_ticketId];\n        eventId = _ticket.eventId;\n        price = _ticket.price;\n    }\n\n    /// @dev Returns the event for a given event ID\n    /// @param _eventId ID of the event\n    function getEvent(uint _eventId) public view returns(\n            address artist, \n            bytes32 name, \n            bytes32 location, \n            uint price, \n            uint time, \n            uint sales, \n            uint salesCap\n        ) {\n        Event memory _event = events[_eventId];\n\n        artist = _event.artist;\n        name = _event.name;\n        location = _event.location;\n        price = _event.price;\n        time = _event.time;\n        sales = totalEventSales[_eventId];\n        salesCap = _event.salesCap;\n    }\n\n    function getTicketDetails(uint _ticketId) public view returns(\n            address artist, \n            bytes32 name, \n            bytes32 location, \n            uint price, \n            uint time\n        ) {\n        Ticket memory _ticket = tickets[_ticketId];\n        Event memory _event = events[_ticket.eventId];\n\n        artist = _event.artist;\n        name = _event.name;\n        location = _event.location;\n        price = _event.price;\n        time = _event.time;\n    }\n\n    /// @dev Used to create a new Event\n    /// @param _artist Address of the artist to recieve the funds\n    /// @param _name Name of the event (32 Character limit)\n    /// @param _location Name of the location for the event (32 Character limit)\n    /// @param _price Ticket price for the event\n    /// @param _time Timestamp in Epoch for the event\n    /// @param _salesCap Number of tickets allowed to be sold for the event\n    function createEvent(address _artist, bytes32 _name, bytes32 _location, uint _price, uint _time, uint _salesCap) public onlyOwner {\n        Event memory _event = Event({\n            artist: _artist,\n            name: _name,\n            location: _location,\n            price: _price,\n            time: _time,\n            salesCap: _salesCap\n        });\n        uint _eventId = events.push(_event) - 1;\n        emit NewEvent(_eventId);\n    }\n\n    /// @dev Used to purchase a ticket for a given event\n    /// @param _eventId ID of the event\n    function purchaseTicket(uint _eventId) public payable {\n        Event memory _event = events[_eventId];\n        uint sellingPrice = _event.price;\n\n        require(_event.salesCap > totalEventSales[_eventId]);\n        require(msg.value >= sellingPrice);\n\n        Ticket memory _ticket = Ticket({\n            eventId: _eventId,\n            price: sellingPrice\n        });\n\n        uint _ticketId = tickets.push(_ticket) - 1;\n        _mint(msg.sender, _ticketId);\n        totalEventSales[_eventId]++;\n        totalOwnedTickets[msg.sender]++;\n\n        uint excess = msg.value.sub(sellingPrice);\n        eventRevenue[_eventId] += sellingPrice;\n        if (excess > 0) {\n            msg.sender.transfer(excess);\n        }\n    }\n\n    /// @dev Used to get the price of a given ticket\n    /// @param _eventId ID of the event\n    function priceOf(uint _eventId) public view returns (uint _price) {\n        Event memory _event = events[_eventId];\n        return _event.price;\n    }\n\n    /// @dev Get the ID's of the tickets owned by someone\n    /// @param _owner Address of someone\n    function ticketsOf(address _owner) public view returns(uint[]) {\n        uint tokenCount = totalOwnedTickets[_owner];\n        if (tokenCount == 0) {\n            return new uint[](0);\n        } else {\n            uint[] memory result = new uint[](tokenCount);\n            uint resultIndex = 0;\n\n            for (uint i = 0; i < tokenCount; i++) {\n                result[resultIndex] = tokenOfOwnerByIndex(_owner, i);\n                resultIndex++;\n            }\n            return result;\n        }\n    }\n\n    /// @dev Gets the total number of events for enumeration purposes\n    function totalEventSupply() public view returns (uint256 _totalSupply) {\n        _totalSupply = events.length;\n    }\n\n    /// @dev Retrieves all Events\n    function getAllEvents() public view returns (\n        address[],\n        bytes32[],\n        bytes32[],\n        uint[],\n        uint[],\n        uint[],\n        uint[]\n    ) {\n        uint256 total = totalEventSupply();\n        address[] memory artists = new address[](total);\n        bytes32[] memory names = new bytes32[](total);\n        bytes32[] memory locations = new bytes32[](total);\n        uint[] memory prices = new uint[](total);\n        uint[] memory times = new uint[](total);\n        uint[] memory soldTickets = new uint[](total);\n        uint[] memory salesCaps = new uint[](total);\n\n        for (uint256 i = 0; i < total; i++) {\n            artists[i] = events[i].artist;\n            names[i] = events[i].name;\n            locations[i] = events[i].location;\n            prices[i] = events[i].price;\n            times[i] = events[i].time;\n            soldTickets[i] = totalEventSales[i];\n            salesCaps[i] = events[i].salesCap;\n        }\n\n        return (artists, names, locations, prices, times, soldTickets, salesCaps);\n    }\n\n    /// @dev Returns the balance value for an event\n    function withdrawBalance(uint _eventId) public onlyArtist(_eventId) {\n        Event memory _event = events[_eventId];\n        uint amount = eventRevenue[_eventId];\n        address to = _event.artist;\n\n        require(amount <= address(this).balance);\n        eventRevenue[_eventId] = 0; // Empty event revenue\n\n        if (to == address(0)) {\n            owner.transfer(amount); // funds are put into owners wallet IF event was created wrong\n        } else {\n            to.transfer(amount);\n        }\n    }\n}\n",
  "sourcePath": "/Users/nathan/Projects/smart-contracts/stubber/contract/contracts/StubToken.sol",
  "compiler": {
    "name": "solc",
    "version": "0.4.24+commit.e67f0147.Emscripten.clang"
  },
  "schemaVersion": "2.0.1",
  "updatedAt": "2018-07-05T15:19:48.055Z"
}