{
  "contractName": "StubToken",
  "abi": [
    {
      "constant": true,
      "inputs": [
        {
          "name": "_interfaceId",
          "type": "bytes4"
        }
      ],
      "name": "supportsInterface",
      "outputs": [
        {
          "name": "",
          "type": "bool"
        }
      ],
      "payable": false,
      "stateMutability": "view",
      "type": "function"
    },
    {
      "constant": true,
      "inputs": [],
      "name": "name",
      "outputs": [
        {
          "name": "",
          "type": "string"
        }
      ],
      "payable": false,
      "stateMutability": "view",
      "type": "function"
    },
    {
      "constant": true,
      "inputs": [
        {
          "name": "_tokenId",
          "type": "uint256"
        }
      ],
      "name": "getApproved",
      "outputs": [
        {
          "name": "",
          "type": "address"
        }
      ],
      "payable": false,
      "stateMutability": "view",
      "type": "function"
    },
    {
      "constant": false,
      "inputs": [
        {
          "name": "_to",
          "type": "address"
        },
        {
          "name": "_tokenId",
          "type": "uint256"
        }
      ],
      "name": "approve",
      "outputs": [],
      "payable": false,
      "stateMutability": "nonpayable",
      "type": "function"
    },
    {
      "constant": true,
      "inputs": [
        {
          "name": "",
          "type": "uint256"
        }
      ],
      "name": "events",
      "outputs": [
        {
          "name": "artist",
          "type": "address"
        },
        {
          "name": "id",
          "type": "bytes32"
        },
        {
          "name": "name",
          "type": "bytes32"
        },
        {
          "name": "locationLat",
          "type": "bytes32"
        },
        {
          "name": "locationLng",
          "type": "bytes32"
        },
        {
          "name": "price",
          "type": "uint256"
        },
        {
          "name": "time",
          "type": "uint256"
        },
        {
          "name": "salesCap",
          "type": "uint256"
        }
      ],
      "payable": false,
      "stateMutability": "view",
      "type": "function"
    },
    {
      "constant": true,
      "inputs": [],
      "name": "totalSupply",
      "outputs": [
        {
          "name": "",
          "type": "uint256"
        }
      ],
      "payable": false,
      "stateMutability": "view",
      "type": "function"
    },
    {
      "constant": true,
      "inputs": [],
      "name": "InterfaceId_ERC165",
      "outputs": [
        {
          "name": "",
          "type": "bytes4"
        }
      ],
      "payable": false,
      "stateMutability": "view",
      "type": "function"
    },
    {
      "constant": false,
      "inputs": [
        {
          "name": "_from",
          "type": "address"
        },
        {
          "name": "_to",
          "type": "address"
        },
        {
          "name": "_tokenId",
          "type": "uint256"
        }
      ],
      "name": "transferFrom",
      "outputs": [],
      "payable": false,
      "stateMutability": "nonpayable",
      "type": "function"
    },
    {
      "constant": true,
      "inputs": [
        {
          "name": "_owner",
          "type": "address"
        },
        {
          "name": "_index",
          "type": "uint256"
        }
      ],
      "name": "tokenOfOwnerByIndex",
      "outputs": [
        {
          "name": "",
          "type": "uint256"
        }
      ],
      "payable": false,
      "stateMutability": "view",
      "type": "function"
    },
    {
      "constant": false,
      "inputs": [
        {
          "name": "_from",
          "type": "address"
        },
        {
          "name": "_to",
          "type": "address"
        },
        {
          "name": "_tokenId",
          "type": "uint256"
        }
      ],
      "name": "safeTransferFrom",
      "outputs": [],
      "payable": false,
      "stateMutability": "nonpayable",
      "type": "function"
    },
    {
      "constant": true,
      "inputs": [
        {
          "name": "_tokenId",
          "type": "uint256"
        }
      ],
      "name": "exists",
      "outputs": [
        {
          "name": "",
          "type": "bool"
        }
      ],
      "payable": false,
      "stateMutability": "view",
      "type": "function"
    },
    {
      "constant": true,
      "inputs": [
        {
          "name": "_index",
          "type": "uint256"
        }
      ],
      "name": "tokenByIndex",
      "outputs": [
        {
          "name": "",
          "type": "uint256"
        }
      ],
      "payable": false,
      "stateMutability": "view",
      "type": "function"
    },
    {
      "constant": true,
      "inputs": [
        {
          "name": "",
          "type": "uint256"
        }
      ],
      "name": "tickets",
      "outputs": [
        {
          "name": "eventId",
          "type": "uint256"
        },
        {
          "name": "price",
          "type": "uint256"
        }
      ],
      "payable": false,
      "stateMutability": "view",
      "type": "function"
    },
    {
      "constant": true,
      "inputs": [
        {
          "name": "_tokenId",
          "type": "uint256"
        }
      ],
      "name": "ownerOf",
      "outputs": [
        {
          "name": "",
          "type": "address"
        }
      ],
      "payable": false,
      "stateMutability": "view",
      "type": "function"
    },
    {
      "constant": true,
      "inputs": [
        {
          "name": "_owner",
          "type": "address"
        }
      ],
      "name": "balanceOf",
      "outputs": [
        {
          "name": "",
          "type": "uint256"
        }
      ],
      "payable": false,
      "stateMutability": "view",
      "type": "function"
    },
    {
      "constant": false,
      "inputs": [],
      "name": "renounceOwnership",
      "outputs": [],
      "payable": false,
      "stateMutability": "nonpayable",
      "type": "function"
    },
    {
      "constant": true,
      "inputs": [],
      "name": "owner",
      "outputs": [
        {
          "name": "",
          "type": "address"
        }
      ],
      "payable": false,
      "stateMutability": "view",
      "type": "function"
    },
    {
      "constant": true,
      "inputs": [],
      "name": "symbol",
      "outputs": [
        {
          "name": "",
          "type": "string"
        }
      ],
      "payable": false,
      "stateMutability": "view",
      "type": "function"
    },
    {
      "constant": false,
      "inputs": [
        {
          "name": "_to",
          "type": "address"
        },
        {
          "name": "_approved",
          "type": "bool"
        }
      ],
      "name": "setApprovalForAll",
      "outputs": [],
      "payable": false,
      "stateMutability": "nonpayable",
      "type": "function"
    },
    {
      "constant": false,
      "inputs": [
        {
          "name": "_from",
          "type": "address"
        },
        {
          "name": "_to",
          "type": "address"
        },
        {
          "name": "_tokenId",
          "type": "uint256"
        },
        {
          "name": "_data",
          "type": "bytes"
        }
      ],
      "name": "safeTransferFrom",
      "outputs": [],
      "payable": false,
      "stateMutability": "nonpayable",
      "type": "function"
    },
    {
      "constant": true,
      "inputs": [
        {
          "name": "_tokenId",
          "type": "uint256"
        }
      ],
      "name": "tokenURI",
      "outputs": [
        {
          "name": "",
          "type": "string"
        }
      ],
      "payable": false,
      "stateMutability": "view",
      "type": "function"
    },
    {
      "constant": true,
      "inputs": [
        {
          "name": "_owner",
          "type": "address"
        },
        {
          "name": "_operator",
          "type": "address"
        }
      ],
      "name": "isApprovedForAll",
      "outputs": [
        {
          "name": "",
          "type": "bool"
        }
      ],
      "payable": false,
      "stateMutability": "view",
      "type": "function"
    },
    {
      "constant": false,
      "inputs": [
        {
          "name": "_newOwner",
          "type": "address"
        }
      ],
      "name": "transferOwnership",
      "outputs": [],
      "payable": false,
      "stateMutability": "nonpayable",
      "type": "function"
    },
    {
      "inputs": [
        {
          "name": "_name",
          "type": "string"
        },
        {
          "name": "_symbol",
          "type": "string"
        }
      ],
      "payable": false,
      "stateMutability": "nonpayable",
      "type": "constructor"
    },
    {
      "anonymous": false,
      "inputs": [
        {
          "indexed": false,
          "name": "_eventId",
          "type": "uint256"
        },
        {
          "indexed": false,
          "name": "_id",
          "type": "bytes32"
        }
      ],
      "name": "NewEvent",
      "type": "event"
    },
    {
      "anonymous": false,
      "inputs": [
        {
          "indexed": true,
          "name": "previousOwner",
          "type": "address"
        }
      ],
      "name": "OwnershipRenounced",
      "type": "event"
    },
    {
      "anonymous": false,
      "inputs": [
        {
          "indexed": true,
          "name": "previousOwner",
          "type": "address"
        },
        {
          "indexed": true,
          "name": "newOwner",
          "type": "address"
        }
      ],
      "name": "OwnershipTransferred",
      "type": "event"
    },
    {
      "anonymous": false,
      "inputs": [
        {
          "indexed": true,
          "name": "_from",
          "type": "address"
        },
        {
          "indexed": true,
          "name": "_to",
          "type": "address"
        },
        {
          "indexed": true,
          "name": "_tokenId",
          "type": "uint256"
        }
      ],
      "name": "Transfer",
      "type": "event"
    },
    {
      "anonymous": false,
      "inputs": [
        {
          "indexed": true,
          "name": "_owner",
          "type": "address"
        },
        {
          "indexed": true,
          "name": "_approved",
          "type": "address"
        },
        {
          "indexed": true,
          "name": "_tokenId",
          "type": "uint256"
        }
      ],
      "name": "Approval",
      "type": "event"
    },
    {
      "anonymous": false,
      "inputs": [
        {
          "indexed": true,
          "name": "_owner",
          "type": "address"
        },
        {
          "indexed": true,
          "name": "_operator",
          "type": "address"
        },
        {
          "indexed": false,
          "name": "_approved",
          "type": "bool"
        }
      ],
      "name": "ApprovalForAll",
      "type": "event"
    },
    {
      "constant": true,
      "inputs": [
        {
          "name": "_ticketId",
          "type": "uint256"
        }
      ],
      "name": "getTicket",
      "outputs": [
        {
          "name": "eventId",
          "type": "uint256"
        },
        {
          "name": "price",
          "type": "uint256"
        }
      ],
      "payable": false,
      "stateMutability": "view",
      "type": "function"
    },
    {
      "constant": true,
      "inputs": [
        {
          "name": "_eventId",
          "type": "uint256"
        }
      ],
      "name": "getEvent",
      "outputs": [
        {
          "name": "artist",
          "type": "address"
        },
        {
          "name": "id",
          "type": "bytes32"
        },
        {
          "name": "name",
          "type": "bytes32"
        },
        {
          "name": "locationLat",
          "type": "bytes32"
        },
        {
          "name": "locationLng",
          "type": "bytes32"
        },
        {
          "name": "price",
          "type": "uint256"
        },
        {
          "name": "time",
          "type": "uint256"
        },
        {
          "name": "sales",
          "type": "uint256"
        },
        {
          "name": "salesCap",
          "type": "uint256"
        }
      ],
      "payable": false,
      "stateMutability": "view",
      "type": "function"
    },
    {
      "constant": true,
      "inputs": [
        {
          "name": "_ticketId",
          "type": "uint256"
        }
      ],
      "name": "getTicketDetails",
      "outputs": [
        {
          "name": "artist",
          "type": "address"
        },
        {
          "name": "id",
          "type": "bytes32"
        },
        {
          "name": "name",
          "type": "bytes32"
        },
        {
          "name": "locationLat",
          "type": "bytes32"
        },
        {
          "name": "locationLng",
          "type": "bytes32"
        },
        {
          "name": "price",
          "type": "uint256"
        },
        {
          "name": "time",
          "type": "uint256"
        }
      ],
      "payable": false,
      "stateMutability": "view",
      "type": "function"
    },
    {
      "constant": false,
      "inputs": [
        {
          "name": "_artist",
          "type": "address"
        },
        {
          "name": "_id",
          "type": "bytes32"
        },
        {
          "name": "_name",
          "type": "bytes32"
        },
        {
          "name": "_locationLat",
          "type": "bytes32"
        },
        {
          "name": "_locationLng",
          "type": "bytes32"
        },
        {
          "name": "_price",
          "type": "uint256"
        },
        {
          "name": "_time",
          "type": "uint256"
        },
        {
          "name": "_salesCap",
          "type": "uint256"
        }
      ],
      "name": "createEvent",
      "outputs": [],
      "payable": false,
      "stateMutability": "nonpayable",
      "type": "function"
    },
    {
      "constant": false,
      "inputs": [
        {
          "name": "_id",
          "type": "bytes32"
        }
      ],
      "name": "purchaseTicket",
      "outputs": [],
      "payable": true,
      "stateMutability": "payable",
      "type": "function"
    },
    {
      "constant": true,
      "inputs": [
        {
          "name": "_eventId",
          "type": "uint256"
        }
      ],
      "name": "priceOf",
      "outputs": [
        {
          "name": "_price",
          "type": "uint256"
        }
      ],
      "payable": false,
      "stateMutability": "view",
      "type": "function"
    },
    {
      "constant": true,
      "inputs": [
        {
          "name": "_owner",
          "type": "address"
        }
      ],
      "name": "ticketsOf",
      "outputs": [
        {
          "name": "",
          "type": "uint256[]"
        }
      ],
      "payable": false,
      "stateMutability": "view",
      "type": "function"
    },
    {
      "constant": true,
      "inputs": [],
      "name": "totalEventSupply",
      "outputs": [
        {
          "name": "_totalSupply",
          "type": "uint256"
        }
      ],
      "payable": false,
      "stateMutability": "view",
      "type": "function"
    },
    {
      "constant": true,
      "inputs": [],
      "name": "getAllEvents",
      "outputs": [
        {
          "name": "",
          "type": "address[]"
        },
        {
          "name": "",
          "type": "bytes32[]"
        },
        {
          "name": "",
          "type": "bytes32[]"
        },
        {
          "name": "",
          "type": "uint256[]"
        },
        {
          "name": "",
          "type": "uint256[]"
        },
        {
          "name": "",
          "type": "uint256[]"
        },
        {
          "name": "",
          "type": "uint256[]"
        }
      ],
      "payable": false,
      "stateMutability": "view",
      "type": "function"
    },
    {
      "constant": false,
      "inputs": [
        {
          "name": "_eventId",
          "type": "uint256"
        }
      ],
      "name": "withdrawBalance",
      "outputs": [],
      "payable": false,
      "stateMutability": "nonpayable",
      "type": "function"
    },
    {
      "constant": false,
      "inputs": [
        {
          "name": "_id",
          "type": "bytes32"
        }
      ],
      "name": "withdrawBalanceId",
      "outputs": [],
      "payable": false,
      "stateMutability": "nonpayable",
      "type": "function"
    }
  ],
  "bytecode": "0x60806040523480156200001157600080fd5b50604051620029c7380380620029c7833981016040528051602082015190820191018181620000697f01ffc9a70000000000000000000000000000000000000000000000000000000064010000000062000182810204565b6200009d7f80ac58cd0000000000000000000000000000000000000000000000000000000064010000000062000182810204565b620000d17f4f558e790000000000000000000000000000000000000000000000000000000064010000000062000182810204565b8151620000e6906005906020850190620001ef565b508051620000fc906006906020840190620001ef565b50620001317f780e9d630000000000000000000000000000000000000000000000000000000064010000000062000182810204565b620001657f5b5e139f0000000000000000000000000000000000000000000000000000000064010000000062000182810204565b5050600c8054600160a060020a0319163317905550620002949050565b7fffffffff000000000000000000000000000000000000000000000000000000008082161415620001b257600080fd5b7fffffffff00000000000000000000000000000000000000000000000000000000166000908152602081905260409020805460ff19166001179055565b828054600181600116156101000203166002900490600052602060002090601f016020900481019282601f106200023257805160ff191683800117855562000262565b8280016001018555821562000262579182015b828111156200026257825182559160200191906001019062000245565b506200027092915062000274565b5090565b6200029191905b808211156200027057600081556001016200027b565b90565b61272380620002a46000396000f3006080604052600436106101ab5763ffffffff7c010000000000000000000000000000000000000000000000000000000060003504166301ffc9a781146101b057806306fdde03146101fb578063081812fc14610285578063095ea7b3146102b95780630b791430146102df578063129a42021461034257806318160ddd1461034d57806319fa8f501461037457806323b872dd146103bb57806324c14160146103e55780632b3327001461043f5780632f745c5914610457578063316579261461047b57806342842e0e146104ec5780634f558e79146105165780634f6ccce71461052e57806350b44712146105465780636352211e146105775780636d1884e01461058f57806370a08231146105f8578063715018a6146106195780637dc379fa1461062e5780638da5cb5b1461064657806395d89b411461065b578063a098300a14610670578063a22cb46514610685578063a3672340146106ab578063b88d4fde146106e1578063b9186d7d14610750578063c27a500d14610768578063c87b56dd1461096f578063da76d5cd14610987578063e985e9c51461099f578063f2fde38b146109c6575b600080fd5b3480156101bc57600080fd5b506101e77bffffffffffffffffffffffffffffffffffffffffffffffffffffffff19600435166109e7565b604080519115158252519081900360200190f35b34801561020757600080fd5b50610210610a1b565b6040805160208082528351818301528351919283929083019185019080838360005b8381101561024a578181015183820152602001610232565b50505050905090810190601f1680156102775780820380516001836020036101000a031916815260200191505b509250505060405180910390f35b34801561029157600080fd5b5061029d600435610ab2565b60408051600160a060020a039092168252519081900360200190f35b3480156102c557600080fd5b506102dd600160a060020a0360043516602435610acd565b005b3480156102eb57600080fd5b506102f7600435610b83565b60408051600160a060020a0390991689526020890197909752878701959095526060870193909352608086019190915260a085015260c084015260e083015251908190036101000190f35b6102dd600435610be1565b34801561035957600080fd5b50610362610dd1565b60408051918252519081900360200190f35b34801561038057600080fd5b50610389610dd7565b604080517bffffffffffffffffffffffffffffffffffffffffffffffffffffffff199092168252519081900360200190f35b3480156103c757600080fd5b506102dd600160a060020a0360043581169060243516604435610dfb565b3480156103f157600080fd5b506103fd600435610ea0565b60408051600160a060020a0390981688526020880196909652868601949094526060860192909252608085015260a084015260c0830152519081900360e00190f35b34801561044b57600080fd5b506102dd600435610ffb565b34801561046357600080fd5b50610362600160a060020a0360043516602435611207565b34801561048757600080fd5b5061049c600160a060020a0360043516611254565b60408051602080825283518183015283519192839290830191858101910280838360005b838110156104d85781810151838201526020016104c0565b505050509050019250505060405180910390f35b3480156104f857600080fd5b506102dd600160a060020a0360043581169060243516604435611309565b34801561052257600080fd5b506101e7600435611341565b34801561053a57600080fd5b5061036260043561135e565b34801561055257600080fd5b5061055e600435611393565b6040805192835260208301919091528051918290030190f35b34801561058357600080fd5b5061029d6004356113bf565b34801561059b57600080fd5b506105a76004356113e9565b60408051600160a060020a03909a168a5260208a0198909852888801969096526060880194909452608087019290925260a086015260c085015260e084015261010083015251908190036101200190f35b34801561060457600080fd5b50610362600160a060020a036004351661151b565b34801561062557600080fd5b506102dd61154e565b34801561063a57600080fd5b5061055e6004356115bc565b34801561065257600080fd5b5061029d61160d565b34801561066757600080fd5b5061021061161c565b34801561067c57600080fd5b5061036261167d565b34801561069157600080fd5b506102dd600160a060020a03600435166024351515611683565b3480156106b757600080fd5b506102dd600160a060020a036004351660243560443560643560843560a43560c43560e435611707565b3480156106ed57600080fd5b50604080516020601f6064356004818101359283018490048402850184019095528184526102dd94600160a060020a0381358116956024803590921695604435953695608494019181908401838280828437509497506119339650505050505050565b34801561075c57600080fd5b50610362600435611972565b34801561077457600080fd5b5061077d611a08565b604051808060200180602001806020018060200180602001806020018060200188810388528f818151815260200191508051906020019060200280838360005b838110156107d55781810151838201526020016107bd565b5050505090500188810387528e818151815260200191508051906020019060200280838360005b838110156108145781810151838201526020016107fc565b5050505090500188810386528d818151815260200191508051906020019060200280838360005b8381101561085357818101518382015260200161083b565b5050505090500188810385528c818151815260200191508051906020019060200280838360005b8381101561089257818101518382015260200161087a565b5050505090500188810384528b818151815260200191508051906020019060200280838360005b838110156108d15781810151838201526020016108b9565b5050505090500188810383528a818151815260200191508051906020019060200280838360005b838110156109105781810151838201526020016108f8565b50505050905001888103825289818151815260200191508051906020019060200280838360005b8381101561094f578181015183820152602001610937565b505050509050019e50505050505050505050505050505060405180910390f35b34801561097b57600080fd5b50610210600435611d27565b34801561099357600080fd5b506102dd600435611ddc565b3480156109ab57600080fd5b506101e7600160a060020a0360043581169060243516611fbb565b3480156109d257600080fd5b506102dd600160a060020a0360043516611fe9565b7bffffffffffffffffffffffffffffffffffffffffffffffffffffffff191660009081526020819052604090205460ff1690565b60058054604080516020601f6002600019610100600188161502019095169490940493840181900481028201810190925282815260609390929091830182828015610aa75780601f10610a7c57610100808354040283529160200191610aa7565b820191906000526020600020905b815481529060010190602001808311610a8a57829003601f168201915b505050505090505b90565b600090815260026020526040902054600160a060020a031690565b6000610ad8826113bf565b9050600160a060020a038381169082161415610af357600080fd5b33600160a060020a0382161480610b0f5750610b0f8133611fbb565b1515610b1a57600080fd5b600082815260026020526040808220805473ffffffffffffffffffffffffffffffffffffffff1916600160a060020a0387811691821790925591518593918516917f8c5be1e5ebec7d5bd14f71427d1e84f3dd0314c0f7b2291e5b200ac8c7c3b92591a4505050565b600e805482908110610b9157fe5b600091825260209091206008909102018054600182015460028301546003840154600485015460058601546006870154600790970154600160a060020a0390961697509395929491939092909188565b6000610beb612655565b6000610bf5612699565b600085815260126020526040812054600e8054919650829187908110610c1757fe5b60009182526020808320604080516101008101825260089094029091018054600160a060020a031684526001810154848401526002810154848301526003810154606085015260048101546080850152600581015460a08501819052600682015460c086015260079091015460e085019081528b8652600f909352932054905191975091955011610ca757600080fd5b34841115610cb457600080fd5b6040805180820190915286815260208101858152600d80546001810182556000919091528251600282027fd7b6990105719101dabeb77144f2a3385c8033acd3af97e9423a695e81ad1eb581019190915591517fd7b6990105719101dabeb77144f2a3385c8033acd3af97e9423a695e81ad1eb6909201919091559093509150610d3e338361200c565b6000868152600f6020908152604080832080546001908101909155338452601090925290912080549091019055610d7b348563ffffffff61205b16565b6000878152601160205260408120805487019055909150811115610dc857604051339082156108fc029083906000818181858888f19350505050158015610dc6573d6000803e3d6000fd5b505b50505050505050565b60095490565b7f01ffc9a70000000000000000000000000000000000000000000000000000000081565b80610e06338261206d565b1515610e1157600080fd5b600160a060020a0384161515610e2657600080fd5b600160a060020a0383161515610e3b57600080fd5b610e4584836120cc565b610e4f848361213d565b610e598383612276565b8183600160a060020a031685600160a060020a03167fddf252ad1be2c89b69c2b068fc378daa952ba7f163c4a11628f55a4df523b3ef60405160405180910390a450505050565b6000806000806000806000610eb3612699565b610ebb612655565b600d80548b908110610ec957fe5b9060005260206000209060020201604080519081016040529081600082015481526020016001820154815250509150600e8260000151815481101515610f0b57fe5b906000526020600020906008020161010060405190810160405290816000820160009054906101000a9004600160a060020a0316600160a060020a0316600160a060020a031681526020016001820154600019166000191681526020016002820154600019166000191681526020016003820154600019166000191681526020016004820154600019166000191681526020016005820154815260200160068201548152602001600782015481525050905080600001519850806020015197508060400151965080606001519550806080015194508060a0015193508060c0015192505050919395979092949650565b6000611005612655565b600080846000611013612655565b600083815260126020526040902054600e8054919350908390811061103457fe5b6000918252602091829020604080516101008101825260089093029091018054600160a060020a03168084526001820154948401949094526002810154918301919091526003810154606083015260048101546080830152600581015460a0830152600681015460c08301526007015460e0820152915033146110b657600080fd5b600088815260126020526040902054600e805491985090889081106110d757fe5b60009182526020808320604080516101008101825260089094029091018054600160a060020a031684526001810154848401526002810154848301526003810154606085015260048101546080850152600581015460a0850152600681015460c08501526007015460e08401528a8452601190915290912054815191975095509350303185111561116757600080fd5b600087815260116020526040812055600160a060020a03841615156111c657600c54604051600160a060020a039091169086156108fc029087906000818181858888f193505050501580156111c0573d6000803e3d6000fd5b50610dc6565b604051600160a060020a0385169086156108fc029087906000818181858888f193505050501580156111fc573d6000803e3d6000fd5b505050505050505050565b60006112128361151b565b821061121d57600080fd5b600160a060020a038316600090815260076020526040902080548390811061124157fe5b9060005260206000200154905092915050565b600160a060020a038116600090815260106020526040812054606091829080831515611290576040805160008152602081019091529450611300565b836040519080825280602002602001820160405280156112ba578160200160208202803883390190505b50925060009150600090505b838110156112fc576112d88682611207565b83838151811015156112e657fe5b60209081029091010152600191820191016112c6565b8294505b50505050919050565b80611314338261206d565b151561131f57600080fd5b61133b8484846020604051908101604052806000815250611933565b50505050565b600090815260016020526040902054600160a060020a0316151590565b6000611368610dd1565b821061137357600080fd5b600980548390811061138157fe5b90600052602060002001549050919050565b600d8054829081106113a157fe5b60009182526020909120600290910201805460019091015490915082565b600081815260016020526040812054600160a060020a03168015156113e357600080fd5b92915050565b60008060008060008060008060006113ff612655565b600e80548c90811061140d57fe5b906000526020600020906008020161010060405190810160405290816000820160009054906101000a9004600160a060020a0316600160a060020a0316600160a060020a031681526020016001820154600019166000191681526020016002820154600019166000191681526020016003820154600019166000191681526020016004820154600019166000191681526020016005820154815260200160068201548152602001600782015481525050905080600001519950806020015198508060400151975080606001519650806080015195508060a0015194508060c001519350600f60008c81526020019081526020016000205492508060e001519150509193959799909294969850565b6000600160a060020a038216151561153257600080fd5b50600160a060020a031660009081526003602052604090205490565b600c54600160a060020a0316331461156557600080fd5b600c54604051600160a060020a03909116907ff8df31144d9c2f0f6b59d69b8b98abd5459d07f2742c4df920b25aae33c6482090600090a2600c805473ffffffffffffffffffffffffffffffffffffffff19169055565b6000806115c7612699565b600d8054859081106115d557fe5b600091825260209182902060408051808201909152600290920201805480835260019091015491909201819052909590945092505050565b600c54600160a060020a031681565b60068054604080516020601f6002600019610100600188161502019095169490940493840181900481028201810190925282815260609390929091830182828015610aa75780601f10610a7c57610100808354040283529160200191610aa7565b600e5490565b600160a060020a03821633141561169957600080fd5b336000818152600460209081526040808320600160a060020a03871680855290835292819020805460ff1916861515908117909155815190815290519293927f17307eab39ab6107e8899845ad3d59bd9653f200f220920489ca2b5937696c31929181900390910190a35050565b61170f612655565b6000888152601260205260408120541561172857600080fd5b50506040805161010081018252600160a060020a038a8116825260208083018b81528385018b8152606085018b8152608086018b815260a087018b815260c088018b815260e089018b8152600e805460018101825560009182528b517fbb7b4a454dc3493923482f07822329ed19e8244eff582cc204f8554c3620c3fd60088302908101805473ffffffffffffffffffffffffffffffffffffffff191692909d1691909117909b5597517fbb7b4a454dc3493923482f07822329ed19e8244eff582cc204f8554c3620c3fe8b0181905596517fbb7b4a454dc3493923482f07822329ed19e8244eff582cc204f8554c3620c3ff8b015594517fbb7b4a454dc3493923482f07822329ed19e8244eff582cc204f8554c3620c4008a015592517fbb7b4a454dc3493923482f07822329ed19e8244eff582cc204f8554c3620c40189015590517fbb7b4a454dc3493923482f07822329ed19e8244eff582cc204f8554c3620c402880155517fbb7b4a454dc3493923482f07822329ed19e8244eff582cc204f8554c3620c403870155517fbb7b4a454dc3493923482f07822329ed19e8244eff582cc204f8554c3620c404909501949094558352601282529184902082905583518281529081018b90528351929391927f52fa1c2aa5479f2f82f7573bfee85a82217363b5be5fce77fd64b251cdb63c40929181900390910190a150505050505050505050565b8161193e338261206d565b151561194957600080fd5b611954858585610dfb565b611960858585856122bf565b151561196b57600080fd5b5050505050565b600061197c612655565b600e80548490811061198a57fe5b600091825260209182902060408051610100810182526008939093029091018054600160a060020a031683526001810154938301939093526002830154908201526003820154606082015260048201546080820152600582015460a08201819052600683015460c083015260079092015460e0909101529392505050565b6060806060806060806060600060608060608060608060606000611a2a61167d565b985088604051908082528060200260200182016040528015611a56578160200160208202803883390190505b50975088604051908082528060200260200182016040528015611a83578160200160208202803883390190505b50965088604051908082528060200260200182016040528015611ab0578160200160208202803883390190505b50955088604051908082528060200260200182016040528015611add578160200160208202803883390190505b50945088604051908082528060200260200182016040528015611b0a578160200160208202803883390190505b50935088604051908082528060200260200182016040528015611b37578160200160208202803883390190505b50925088604051908082528060200260200182016040528015611b64578160200160208202803883390190505b509150600090505b88811015611d0f57600e805482908110611b8257fe5b60009182526020909120600890910201548851600160a060020a0390911690899083908110611bad57fe5b600160a060020a03909216602092830290910190910152600e805482908110611bd257fe5b9060005260206000209060080201600101548782815181101515611bf257fe5b60209081029091010152600e805482908110611c0a57fe5b9060005260206000209060080201600201548682815181101515611c2a57fe5b60209081029091010152600e805482908110611c4257fe5b9060005260206000209060080201600501548582815181101515611c6257fe5b60209081029091010152600e805482908110611c7a57fe5b9060005260206000209060080201600601548482815181101515611c9a57fe5b60209081029091018101919091526000828152600f90915260409020548351849083908110611cc557fe5b60209081029091010152600e805482908110611cdd57fe5b9060005260206000209060080201600701548282815181101515611cfd57fe5b60209081029091010152600101611b6c565b50959e949d50929b5090995097509550909350915050565b6060611d3282611341565b1515611d3d57600080fd5b6000828152600b602090815260409182902080548351601f600260001961010060018616150201909316929092049182018490048402810184019094528084529091830182828015611dd05780601f10611da557610100808354040283529160200191611dd0565b820191906000526020600020905b815481529060010190602001808311611db357829003601f168201915b50505050509050919050565b611de4612655565b60008083611df0612655565b600e805483908110611dfe57fe5b6000918252602091829020604080516101008101825260089093029091018054600160a060020a03168084526001820154948401949094526002810154918301919091526003810154606083015260048101546080830152600581015460a0830152600681015460c08301526007015460e082015291503314611e8057600080fd5b600e805487908110611e8e57fe5b60009182526020808320604080516101008101825260089094029091018054600160a060020a031684526001810154848401526002810154848301526003810154606085015260048101546080850152600581015460a0850152600681015460c08501526007015460e08401528984526011909152909120548151919650945092503031841115611f1e57600080fd5b600086815260116020526040812055600160a060020a0383161515611f7d57600c54604051600160a060020a039091169085156108fc029086906000818181858888f19350505050158015611f77573d6000803e3d6000fd5b50611fb3565b604051600160a060020a0384169085156108fc029086906000818181858888f19350505050158015610dc8573d6000803e3d6000fd5b505050505050565b600160a060020a03918216600090815260046020908152604080832093909416825291909152205460ff1690565b600c54600160a060020a0316331461200057600080fd5b61200981612441565b50565b61201682826124bf565b600980546000838152600a60205260408120829055600182018355919091527f6e1540171b6c0c960b71a7020d9f60077f6af931a8bbf590da0223dacf75c7af015550565b60008282111561206757fe5b50900390565b600080612079836113bf565b905080600160a060020a031684600160a060020a031614806120b4575083600160a060020a03166120a984610ab2565b600160a060020a0316145b806120c457506120c48185611fbb565b949350505050565b81600160a060020a03166120df826113bf565b600160a060020a0316146120f257600080fd5b600081815260026020526040902054600160a060020a031615612139576000818152600260205260409020805473ffffffffffffffffffffffffffffffffffffffff191690555b5050565b600080600061214c858561251a565b600084815260086020908152604080832054600160a060020a038916845260079092529091205490935061218790600163ffffffff61205b16565b600160a060020a0386166000908152600760205260409020805491935090839081106121af57fe5b90600052602060002001549050806007600087600160a060020a0316600160a060020a03168152602001908152602001600020848154811015156121ef57fe5b6000918252602080832090910192909255600160a060020a038716815260079091526040812080548490811061222157fe5b6000918252602080832090910192909255600160a060020a03871681526007909152604090208054906122589060001983016126b0565b50600093845260086020526040808520859055908452909220555050565b600061228283836125b0565b50600160a060020a039091166000908152600760209081526040808320805460018101825590845282842081018590559383526008909152902055565b6000806122d485600160a060020a0316612640565b15156122e35760019150612438565b6040517f150b7a020000000000000000000000000000000000000000000000000000000081523360048201818152600160a060020a03898116602485015260448401889052608060648501908152875160848601528751918a169463150b7a0294938c938b938b93909160a490910190602085019080838360005b8381101561237657818101518382015260200161235e565b50505050905090810190601f1680156123a35780820380516001836020036101000a031916815260200191505b5095505050505050602060405180830381600087803b1580156123c557600080fd5b505af11580156123d9573d6000803e3d6000fd5b505050506040513d60208110156123ef57600080fd5b50517bffffffffffffffffffffffffffffffffffffffffffffffffffffffff1981167f150b7a020000000000000000000000000000000000000000000000000000000014925090505b50949350505050565b600160a060020a038116151561245657600080fd5b600c54604051600160a060020a038084169216907f8be0079c531659141344cd1fd0a4f28419497f9722a3daafe3b4186f6b6457e090600090a3600c805473ffffffffffffffffffffffffffffffffffffffff1916600160a060020a0392909216919091179055565b600160a060020a03821615156124d457600080fd5b6124de8282612276565b6040518190600160a060020a038416906000907fddf252ad1be2c89b69c2b068fc378daa952ba7f163c4a11628f55a4df523b3ef908290a45050565b81600160a060020a031661252d826113bf565b600160a060020a03161461254057600080fd5b600160a060020a03821660009081526003602052604090205461256a90600163ffffffff61205b16565b600160a060020a03909216600090815260036020908152604080832094909455918152600190915220805473ffffffffffffffffffffffffffffffffffffffff19169055565b600081815260016020526040902054600160a060020a0316156125d257600080fd5b6000818152600160208181526040808420805473ffffffffffffffffffffffffffffffffffffffff1916600160a060020a038816908117909155845260039091529091205461262091612648565b600160a060020a0390921660009081526003602052604090209190915550565b6000903b1190565b818101828110156113e357fe5b6040805161010081018252600080825260208201819052918101829052606081018290526080810182905260a0810182905260c0810182905260e081019190915290565b604080518082019091526000808252602082015290565b8154818355818111156126d4576000838152602090206126d49181019083016126d9565b505050565b610aaf91905b808211156126f357600081556001016126df565b50905600a165627a7a72305820480a76b6035d177b0a3054ce2282fba47adb6b63e414ec4880c9778e703f383b0029",
  "source": "pragma solidity ^0.4.24;\n\nimport \"openzeppelin-solidity/contracts/token/ERC721/ERC721Token.sol\";\nimport \"openzeppelin-solidity/contracts/ownership/Ownable.sol\";\n\ncontract StubToken is ERC721Token, Ownable {\n\n    constructor(string _name,string _symbol)\n    ERC721Token(_name, _symbol) public {\n\n    }\n\n    event NewEvent(uint _eventId, bytes32 _id);\n\n    struct Ticket {\n        uint eventId;\n        uint price;\n    }\n\n    struct Event {\n        address artist;\n        bytes32 id;\n        bytes32 name;\n        bytes32 locationLat;\n        bytes32 locationLng;\n        uint price;\n        uint time;\n        uint salesCap;\n    }\n\n    Ticket[] public tickets;\n    Event[] public events;\n\n    mapping (uint => uint) private totalEventSales;\n    mapping (address => uint) private totalOwnedTickets;\n    mapping (uint => uint) private eventRevenue;\n    mapping (bytes32 => uint) private eventRefIdToEvent;\n\n    /// @dev Modifier for checking artist ownership\n    modifier onlyArtist(uint _eventId) {\n        Event memory _event = events[_eventId];\n        require(msg.sender == _event.artist);\n        _;\n    }\n\n    /// @dev Modifier for checking artist ownership using byte32 id\n    modifier onlyArtistId(bytes32 _id) {\n        uint eventId = eventRefIdToEvent[_id];\n        Event memory _event = events[eventId];\n        require(msg.sender == _event.artist);\n        _;\n    }\n\n    /// @dev Returns the general ticket details for a given ticket ID\n    /// @param _ticketId ID of the ticket (ERC721 token)\n    function getTicket(uint _ticketId) public view returns(uint eventId, uint price) {\n        Ticket memory _ticket = tickets[_ticketId];\n        eventId = _ticket.eventId;\n        price = _ticket.price;\n    }\n\n    /// @dev Returns the event for a given event ID\n    /// @param _eventId ID of the event\n    function getEvent(uint _eventId) public view returns(\n            address artist, \n            bytes32 id,\n            bytes32 name, \n            bytes32 locationLat,\n            bytes32 locationLng,\n            uint price, \n            uint time, \n            uint sales, \n            uint salesCap\n        ) {\n        Event memory _event = events[_eventId];\n\n        artist = _event.artist;\n        id = _event.id;\n        name = _event.name;\n        locationLat = _event.locationLat;\n        locationLng = _event.locationLng;\n        price = _event.price;\n        time = _event.time;\n        sales = totalEventSales[_eventId];\n        salesCap = _event.salesCap;\n    }\n\n    /// @dev Get viewer details for a given ticket\n    /// @param _ticketId The token ID of a given ticket\n    function getTicketDetails(uint _ticketId) public view returns(\n            address artist, \n            bytes32 id,\n            bytes32 name, \n            bytes32 locationLat,\n            bytes32 locationLng,\n            uint price, \n            uint time\n        ) {\n        Ticket memory _ticket = tickets[_ticketId];\n        Event memory _event = events[_ticket.eventId];\n\n        artist = _event.artist;\n        id = _event.id;\n        name = _event.name;\n        locationLat = _event.locationLat;\n        locationLng = _event.locationLng;\n        price = _event.price;\n        time = _event.time;\n    }\n\n    /// @dev Used to create a new Event\n    /// @param _artist Address of the artist to recieve the funds\n    /// @param _id Reference identifier for event usable externally\n    /// @param _name Name of the event\n    /// @param _locationLat Lat of the event\n    /// @param _locationLng Lng of the event\n    /// @param _price Ticket price for the event\n    /// @param _time Timestamp in Epoch for the event\n    /// @param _salesCap Number of tickets allowed to be sold for the event\n    function createEvent(\n        address _artist, \n        bytes32 _id,\n        bytes32 _name, \n        bytes32 _locationLat,\n        bytes32 _locationLng,\n        uint _price, \n        uint _time, \n        uint _salesCap\n        ) public {\n\n        // confirm we don't override the mapping for another event!!!\n        require(eventRefIdToEvent[_id] == 0);\n\n        Event memory _event = Event({\n            artist: _artist,\n            id: _id,\n            name: _name,\n            locationLat: _locationLat,\n            locationLng: _locationLng,\n            price: _price,\n            time: _time,\n            salesCap: _salesCap\n        });\n        uint _eventId = events.push(_event) - 1;\n        eventRefIdToEvent[_event.id] = _eventId;\n        emit NewEvent(_eventId, _id);\n    }\n\n    /// @dev Used to purchase a ticket for a given event\n    /// @param _id byte ID of the event\n    function purchaseTicket(bytes32 _id) public payable {\n        uint _eventId = eventRefIdToEvent[_id];\n        Event memory _event = events[_eventId];\n        uint sellingPrice = _event.price;\n\n        require(_event.salesCap > totalEventSales[_eventId]);\n        require(msg.value >= sellingPrice);\n\n        Ticket memory _ticket = Ticket({\n            eventId: _eventId,\n            price: sellingPrice\n        });\n\n        uint _ticketId = tickets.push(_ticket) - 1;\n        _mint(msg.sender, _ticketId);\n        totalEventSales[_eventId]++;\n        totalOwnedTickets[msg.sender]++;\n\n        uint excess = msg.value.sub(sellingPrice);\n        eventRevenue[_eventId] += sellingPrice;\n        if (excess > 0) {\n            msg.sender.transfer(excess);\n        }\n    }\n\n    /// @dev Used to get the price of a given ticket\n    /// @param _eventId ID of the event\n    function priceOf(uint _eventId) public view returns (uint _price) {\n        Event memory _event = events[_eventId];\n        return _event.price;\n    }\n\n    /// @dev Get the ID's of the tickets owned by someone\n    /// @param _owner Address of someone\n    function ticketsOf(address _owner) public view returns(uint[]) {\n        uint tokenCount = totalOwnedTickets[_owner];\n        if (tokenCount == 0) {\n            return new uint[](0);\n        } else {\n            uint[] memory result = new uint[](tokenCount);\n            uint resultIndex = 0;\n\n            for (uint i = 0; i < tokenCount; i++) {\n                result[resultIndex] = tokenOfOwnerByIndex(_owner, i);\n                resultIndex++;\n            }\n            return result;\n        }\n    }\n\n    /// @dev Gets the total number of events for enumeration purposes\n    function totalEventSupply() public view returns (uint256 _totalSupply) {\n        _totalSupply = events.length;\n    }\n\n    /// @dev Retrieves all Events\n    function getAllEvents() public view returns (\n        address[],\n        bytes32[],\n        bytes32[],\n        uint[],\n        uint[],\n        uint[],\n        uint[]\n    ) {\n        uint256 total = totalEventSupply();\n        address[] memory artists = new address[](total);\n        bytes32[] memory ids = new bytes32[](total);\n        bytes32[] memory names = new bytes32[](total);\n        uint[] memory prices = new uint[](total);\n        uint[] memory times = new uint[](total);\n        uint[] memory soldTickets = new uint[](total);\n        uint[] memory salesCaps = new uint[](total);\n\n        for (uint256 i = 0; i < total; i++) {\n            artists[i] = events[i].artist;\n            ids[i] = events[i].id;\n            names[i] = events[i].name;\n            prices[i] = events[i].price;\n            times[i] = events[i].time;\n            soldTickets[i] = totalEventSales[i];\n            salesCaps[i] = events[i].salesCap;\n        }\n\n        return (artists, ids, names, prices, times, soldTickets, salesCaps);\n    }\n\n    /// @dev Returns the balance value for an event\n    function withdrawBalance(uint _eventId) public onlyArtist(_eventId) {\n        Event memory _event = events[_eventId];\n        uint amount = eventRevenue[_eventId];\n        address to = _event.artist;\n\n        require(amount <= address(this).balance);\n        eventRevenue[_eventId] = 0; // Empty event revenue\n\n        if (to == address(0)) {\n            owner.transfer(amount); // funds are put into owners wallet IF event was created wrong\n        } else {\n            to.transfer(amount);\n        }\n    }\n\n    /// @dev Returns the balance value for an event based on its external ID.\n    function withdrawBalanceId(bytes32 _id) public onlyArtistId(_id) {\n        uint eventId = eventRefIdToEvent[_id];\n        Event memory _event = events[eventId];\n        uint amount = eventRevenue[eventId];\n        address to = _event.artist;\n\n        require(amount <= address(this).balance);\n        eventRevenue[eventId] = 0; // Empty event revenue\n\n        if (to == address(0)) {\n            owner.transfer(amount); // funds are put into owners wallet IF event was created wrong\n        } else {\n            to.transfer(amount);\n        }\n    }\n}\n",
  "sourcePath": "/Users/nathan/Projects/smart-contracts/stubber/contract/contracts/StubToken.sol",
  "compiler": {
    "name": "solc",
    "version": "0.4.24+commit.e67f0147.Emscripten.clang"
  },
  "schemaVersion": "2.0.1",
  "updatedAt": "2018-07-14T14:34:37.546Z"
}