{
  "contractName": "StubToken",
  "abi": [
    {
      "constant": true,
      "inputs": [],
      "name": "name",
      "outputs": [
        {
          "name": "",
          "type": "string"
        }
      ],
      "payable": false,
      "stateMutability": "view",
      "type": "function"
    },
    {
      "constant": true,
      "inputs": [
        {
          "name": "_tokenId",
          "type": "uint256"
        }
      ],
      "name": "getApproved",
      "outputs": [
        {
          "name": "",
          "type": "address"
        }
      ],
      "payable": false,
      "stateMutability": "view",
      "type": "function"
    },
    {
      "constant": false,
      "inputs": [
        {
          "name": "_to",
          "type": "address"
        },
        {
          "name": "_tokenId",
          "type": "uint256"
        }
      ],
      "name": "approve",
      "outputs": [],
      "payable": false,
      "stateMutability": "nonpayable",
      "type": "function"
    },
    {
      "constant": true,
      "inputs": [
        {
          "name": "",
          "type": "uint256"
        }
      ],
      "name": "events",
      "outputs": [
        {
          "name": "artist",
          "type": "address"
        },
        {
          "name": "name",
          "type": "bytes32"
        },
        {
          "name": "location",
          "type": "bytes32"
        },
        {
          "name": "price",
          "type": "uint256"
        },
        {
          "name": "time",
          "type": "uint256"
        },
        {
          "name": "salesCap",
          "type": "uint256"
        }
      ],
      "payable": false,
      "stateMutability": "view",
      "type": "function"
    },
    {
      "constant": true,
      "inputs": [],
      "name": "totalSupply",
      "outputs": [
        {
          "name": "",
          "type": "uint256"
        }
      ],
      "payable": false,
      "stateMutability": "view",
      "type": "function"
    },
    {
      "constant": false,
      "inputs": [
        {
          "name": "_from",
          "type": "address"
        },
        {
          "name": "_to",
          "type": "address"
        },
        {
          "name": "_tokenId",
          "type": "uint256"
        }
      ],
      "name": "transferFrom",
      "outputs": [],
      "payable": false,
      "stateMutability": "nonpayable",
      "type": "function"
    },
    {
      "constant": true,
      "inputs": [
        {
          "name": "_owner",
          "type": "address"
        },
        {
          "name": "_index",
          "type": "uint256"
        }
      ],
      "name": "tokenOfOwnerByIndex",
      "outputs": [
        {
          "name": "",
          "type": "uint256"
        }
      ],
      "payable": false,
      "stateMutability": "view",
      "type": "function"
    },
    {
      "constant": false,
      "inputs": [
        {
          "name": "_from",
          "type": "address"
        },
        {
          "name": "_to",
          "type": "address"
        },
        {
          "name": "_tokenId",
          "type": "uint256"
        }
      ],
      "name": "safeTransferFrom",
      "outputs": [],
      "payable": false,
      "stateMutability": "nonpayable",
      "type": "function"
    },
    {
      "constant": true,
      "inputs": [
        {
          "name": "_tokenId",
          "type": "uint256"
        }
      ],
      "name": "exists",
      "outputs": [
        {
          "name": "",
          "type": "bool"
        }
      ],
      "payable": false,
      "stateMutability": "view",
      "type": "function"
    },
    {
      "constant": true,
      "inputs": [
        {
          "name": "_index",
          "type": "uint256"
        }
      ],
      "name": "tokenByIndex",
      "outputs": [
        {
          "name": "",
          "type": "uint256"
        }
      ],
      "payable": false,
      "stateMutability": "view",
      "type": "function"
    },
    {
      "constant": true,
      "inputs": [
        {
          "name": "",
          "type": "uint256"
        }
      ],
      "name": "tickets",
      "outputs": [
        {
          "name": "eventId",
          "type": "uint256"
        },
        {
          "name": "price",
          "type": "uint256"
        }
      ],
      "payable": false,
      "stateMutability": "view",
      "type": "function"
    },
    {
      "constant": true,
      "inputs": [
        {
          "name": "_tokenId",
          "type": "uint256"
        }
      ],
      "name": "ownerOf",
      "outputs": [
        {
          "name": "",
          "type": "address"
        }
      ],
      "payable": false,
      "stateMutability": "view",
      "type": "function"
    },
    {
      "constant": true,
      "inputs": [
        {
          "name": "_owner",
          "type": "address"
        }
      ],
      "name": "balanceOf",
      "outputs": [
        {
          "name": "",
          "type": "uint256"
        }
      ],
      "payable": false,
      "stateMutability": "view",
      "type": "function"
    },
    {
      "constant": false,
      "inputs": [],
      "name": "renounceOwnership",
      "outputs": [],
      "payable": false,
      "stateMutability": "nonpayable",
      "type": "function"
    },
    {
      "constant": true,
      "inputs": [],
      "name": "owner",
      "outputs": [
        {
          "name": "",
          "type": "address"
        }
      ],
      "payable": false,
      "stateMutability": "view",
      "type": "function"
    },
    {
      "constant": true,
      "inputs": [],
      "name": "symbol",
      "outputs": [
        {
          "name": "",
          "type": "string"
        }
      ],
      "payable": false,
      "stateMutability": "view",
      "type": "function"
    },
    {
      "constant": false,
      "inputs": [
        {
          "name": "_to",
          "type": "address"
        },
        {
          "name": "_approved",
          "type": "bool"
        }
      ],
      "name": "setApprovalForAll",
      "outputs": [],
      "payable": false,
      "stateMutability": "nonpayable",
      "type": "function"
    },
    {
      "constant": false,
      "inputs": [
        {
          "name": "_from",
          "type": "address"
        },
        {
          "name": "_to",
          "type": "address"
        },
        {
          "name": "_tokenId",
          "type": "uint256"
        },
        {
          "name": "_data",
          "type": "bytes"
        }
      ],
      "name": "safeTransferFrom",
      "outputs": [],
      "payable": false,
      "stateMutability": "nonpayable",
      "type": "function"
    },
    {
      "constant": true,
      "inputs": [
        {
          "name": "_tokenId",
          "type": "uint256"
        }
      ],
      "name": "tokenURI",
      "outputs": [
        {
          "name": "",
          "type": "string"
        }
      ],
      "payable": false,
      "stateMutability": "view",
      "type": "function"
    },
    {
      "constant": true,
      "inputs": [
        {
          "name": "_owner",
          "type": "address"
        },
        {
          "name": "_operator",
          "type": "address"
        }
      ],
      "name": "isApprovedForAll",
      "outputs": [
        {
          "name": "",
          "type": "bool"
        }
      ],
      "payable": false,
      "stateMutability": "view",
      "type": "function"
    },
    {
      "constant": false,
      "inputs": [
        {
          "name": "_newOwner",
          "type": "address"
        }
      ],
      "name": "transferOwnership",
      "outputs": [],
      "payable": false,
      "stateMutability": "nonpayable",
      "type": "function"
    },
    {
      "inputs": [
        {
          "name": "_name",
          "type": "string"
        },
        {
          "name": "_symbol",
          "type": "string"
        }
      ],
      "payable": false,
      "stateMutability": "nonpayable",
      "type": "constructor"
    },
    {
      "anonymous": false,
      "inputs": [
        {
          "indexed": false,
          "name": "_eventId",
          "type": "uint256"
        }
      ],
      "name": "NewEvent",
      "type": "event"
    },
    {
      "anonymous": false,
      "inputs": [
        {
          "indexed": true,
          "name": "previousOwner",
          "type": "address"
        }
      ],
      "name": "OwnershipRenounced",
      "type": "event"
    },
    {
      "anonymous": false,
      "inputs": [
        {
          "indexed": true,
          "name": "previousOwner",
          "type": "address"
        },
        {
          "indexed": true,
          "name": "newOwner",
          "type": "address"
        }
      ],
      "name": "OwnershipTransferred",
      "type": "event"
    },
    {
      "anonymous": false,
      "inputs": [
        {
          "indexed": true,
          "name": "_from",
          "type": "address"
        },
        {
          "indexed": true,
          "name": "_to",
          "type": "address"
        },
        {
          "indexed": false,
          "name": "_tokenId",
          "type": "uint256"
        }
      ],
      "name": "Transfer",
      "type": "event"
    },
    {
      "anonymous": false,
      "inputs": [
        {
          "indexed": true,
          "name": "_owner",
          "type": "address"
        },
        {
          "indexed": true,
          "name": "_approved",
          "type": "address"
        },
        {
          "indexed": false,
          "name": "_tokenId",
          "type": "uint256"
        }
      ],
      "name": "Approval",
      "type": "event"
    },
    {
      "anonymous": false,
      "inputs": [
        {
          "indexed": true,
          "name": "_owner",
          "type": "address"
        },
        {
          "indexed": true,
          "name": "_operator",
          "type": "address"
        },
        {
          "indexed": false,
          "name": "_approved",
          "type": "bool"
        }
      ],
      "name": "ApprovalForAll",
      "type": "event"
    },
    {
      "constant": true,
      "inputs": [
        {
          "name": "_ticketId",
          "type": "uint256"
        }
      ],
      "name": "getTicket",
      "outputs": [
        {
          "name": "eventId",
          "type": "uint256"
        },
        {
          "name": "price",
          "type": "uint256"
        }
      ],
      "payable": false,
      "stateMutability": "view",
      "type": "function"
    },
    {
      "constant": true,
      "inputs": [
        {
          "name": "_eventId",
          "type": "uint256"
        }
      ],
      "name": "getEvent",
      "outputs": [
        {
          "name": "artist",
          "type": "address"
        },
        {
          "name": "name",
          "type": "bytes32"
        },
        {
          "name": "location",
          "type": "bytes32"
        },
        {
          "name": "price",
          "type": "uint256"
        },
        {
          "name": "time",
          "type": "uint256"
        },
        {
          "name": "sales",
          "type": "uint256"
        },
        {
          "name": "salesCap",
          "type": "uint256"
        }
      ],
      "payable": false,
      "stateMutability": "view",
      "type": "function"
    },
    {
      "constant": true,
      "inputs": [
        {
          "name": "_ticketId",
          "type": "uint256"
        }
      ],
      "name": "getTicketDetails",
      "outputs": [
        {
          "name": "artist",
          "type": "address"
        },
        {
          "name": "name",
          "type": "bytes32"
        },
        {
          "name": "location",
          "type": "bytes32"
        },
        {
          "name": "price",
          "type": "uint256"
        },
        {
          "name": "time",
          "type": "uint256"
        }
      ],
      "payable": false,
      "stateMutability": "view",
      "type": "function"
    },
    {
      "constant": false,
      "inputs": [
        {
          "name": "_artist",
          "type": "address"
        },
        {
          "name": "_name",
          "type": "bytes32"
        },
        {
          "name": "_location",
          "type": "bytes32"
        },
        {
          "name": "_price",
          "type": "uint256"
        },
        {
          "name": "_time",
          "type": "uint256"
        },
        {
          "name": "_salesCap",
          "type": "uint256"
        }
      ],
      "name": "createEvent",
      "outputs": [],
      "payable": false,
      "stateMutability": "nonpayable",
      "type": "function"
    },
    {
      "constant": false,
      "inputs": [
        {
          "name": "_eventId",
          "type": "uint256"
        }
      ],
      "name": "purchaseTicket",
      "outputs": [],
      "payable": true,
      "stateMutability": "payable",
      "type": "function"
    },
    {
      "constant": true,
      "inputs": [
        {
          "name": "_eventId",
          "type": "uint256"
        }
      ],
      "name": "priceOf",
      "outputs": [
        {
          "name": "_price",
          "type": "uint256"
        }
      ],
      "payable": false,
      "stateMutability": "view",
      "type": "function"
    },
    {
      "constant": true,
      "inputs": [
        {
          "name": "_owner",
          "type": "address"
        }
      ],
      "name": "ticketsOf",
      "outputs": [
        {
          "name": "",
          "type": "uint256[]"
        }
      ],
      "payable": false,
      "stateMutability": "view",
      "type": "function"
    },
    {
      "constant": true,
      "inputs": [],
      "name": "totalEventSupply",
      "outputs": [
        {
          "name": "_totalSupply",
          "type": "uint256"
        }
      ],
      "payable": false,
      "stateMutability": "view",
      "type": "function"
    },
    {
      "constant": false,
      "inputs": [
        {
          "name": "_eventId",
          "type": "uint256"
        }
      ],
      "name": "withdrawBalance",
      "outputs": [],
      "payable": false,
      "stateMutability": "nonpayable",
      "type": "function"
    }
  ],
  "bytecode": "0x60806040523480156200001157600080fd5b5060405162001eb938038062001eb98339810160405280516020808301519183018051909392909201918391839162000051916004919085019062000085565b5080516200006790600590602084019062000085565b5050600b8054600160a060020a03191633179055506200012a915050565b828054600181600116156101000203166002900490600052602060002090601f016020900481019282601f10620000c857805160ff1916838001178555620000f8565b82800160010185558215620000f8579182015b82811115620000f8578251825591602001919060010190620000db565b50620001069291506200010a565b5090565b6200012791905b8082111562000106576000815560010162000111565b90565b611d7f806200013a6000396000f30060806040526004361061017f5763ffffffff7c010000000000000000000000000000000000000000000000000000000060003504166306fdde038114610184578063081812fc1461020e578063095ea7b3146102425780630b7914301461026857806318160ddd146102bd57806323b872dd146102e457806324c141601461030e5780632f745c591461035b578063316579261461037f57806342842e0e146103f05780634f558e791461041a5780634f6ccce71461044657806350b447121461045e5780636352211e1461048f5780636d1884e0146104a757806370a0823114610501578063715018a6146105225780637dc379fa1461053757806383d420a11461054f5780638da5cb5b1461057f57806395d89b4114610594578063a098300a146105a9578063a22cb465146105be578063b88d4fde146105e4578063b9186d7d14610653578063b948348c1461066b578063c87b56dd14610676578063da76d5cd1461068e578063e985e9c5146106a6578063f2fde38b146106cd575b600080fd5b34801561019057600080fd5b506101996106ee565b6040805160208082528351818301528351919283929083019185019080838360005b838110156101d35781810151838201526020016101bb565b50505050905090810190601f1680156102005780820380516001836020036101000a031916815260200191505b509250505060405180910390f35b34801561021a57600080fd5b50610226600435610785565b60408051600160a060020a039092168252519081900360200190f35b34801561024e57600080fd5b50610266600160a060020a03600435166024356107a0565b005b34801561027457600080fd5b50610280600435610892565b60408051600160a060020a0390971687526020870195909552858501939093526060850191909152608084015260a0830152519081900360c00190f35b3480156102c957600080fd5b506102d26108e0565b60408051918252519081900360200190f35b3480156102f057600080fd5b50610266600160a060020a03600435811690602435166044356108e6565b34801561031a57600080fd5b50610326600435610995565b60408051600160a060020a03909616865260208601949094528484019290925260608401526080830152519081900360a00190f35b34801561036757600080fd5b506102d2600160a060020a0360043516602435610a78565b34801561038b57600080fd5b506103a0600160a060020a0360043516610ac5565b60408051602080825283518183015283519192839290830191858101910280838360005b838110156103dc5781810151838201526020016103c4565b505050509050019250505060405180910390f35b3480156103fc57600080fd5b50610266600160a060020a0360043581169060243516604435610b7a565b34801561042657600080fd5b50610432600435610bb2565b604080519115158252519081900360200190f35b34801561045257600080fd5b506102d2600435610bcf565b34801561046a57600080fd5b50610476600435610c04565b6040805192835260208301919091528051918290030190f35b34801561049b57600080fd5b50610226600435610c30565b3480156104b357600080fd5b506104bf600435610c5a565b60408051600160a060020a0390981688526020880196909652868601949094526060860192909252608085015260a084015260c0830152519081900360e00190f35b34801561050d57600080fd5b506102d2600160a060020a0360043516610d54565b34801561052e57600080fd5b50610266610d87565b34801561054357600080fd5b50610476600435610df5565b34801561055b57600080fd5b50610266600160a060020a036004351660243560443560643560843560a435610e46565b34801561058b57600080fd5b50610226611001565b3480156105a057600080fd5b50610199611010565b3480156105b557600080fd5b506102d2611071565b3480156105ca57600080fd5b50610266600160a060020a03600435166024351515611077565b3480156105f057600080fd5b50604080516020601f60643560048181013592830184900484028501840190955281845261026694600160a060020a0381358116956024803590921695604435953695608494019181908401838280828437509497506110fb9650505050505050565b34801561065f57600080fd5b506102d260043561113a565b6102666004356111bb565b34801561068257600080fd5b50610199600435611383565b34801561069a57600080fd5b50610266600435611438565b3480156106b257600080fd5b50610432600160a060020a03600435811690602435166115e5565b3480156106d957600080fd5b50610266600160a060020a0360043516611613565b60048054604080516020601f600260001961010060018816150201909516949094049384018190048102820181019092528281526060939092909183018282801561077a5780601f1061074f5761010080835404028352916020019161077a565b820191906000526020600020905b81548152906001019060200180831161075d57829003601f168201915b505050505090505b90565b600090815260016020526040902054600160a060020a031690565b60006107ab82610c30565b9050600160a060020a0383811690821614156107c657600080fd5b33600160a060020a03821614806107e257506107e281336115e5565b15156107ed57600080fd5b60006107f883610785565b600160a060020a03161415806108165750600160a060020a03831615155b1561088d57600082815260016020908152604091829020805473ffffffffffffffffffffffffffffffffffffffff1916600160a060020a03878116918217909255835186815293519093918516927f8c5be1e5ebec7d5bd14f71427d1e84f3dd0314c0f7b2291e5b200ac8c7c3b925928290030190a35b505050565b600d8054829081106108a057fe5b6000918252602090912060069091020180546001820154600283015460038401546004850154600590950154600160a060020a0390941695509193909286565b60085490565b806108f13382611636565b15156108fc57600080fd5b600160a060020a038416151561091157600080fd5b600160a060020a038316151561092657600080fd5b6109308483611695565b61093a8483611743565b610944838361187c565b82600160a060020a031684600160a060020a03167fddf252ad1be2c89b69c2b068fc378daa952ba7f163c4a11628f55a4df523b3ef846040518082815260200191505060405180910390a350505050565b60008060008060006109a5611cca565b6109ad611ce1565b600c8054899081106109bb57fe5b9060005260206000209060020201604080519081016040529081600082015481526020016001820154815250509150600d82600001518154811015156109fd57fe5b60009182526020918290206040805160c08101825260069093029091018054600160a060020a03168084526001820154948401859052600282015492840183905260038201546060850181905260048301546080860181905260059093015460a0909501949094529c939b5090995090975095509350505050565b6000610a8383610d54565b8210610a8e57600080fd5b600160a060020a0383166000908152600660205260409020805483908110610ab257fe5b9060005260206000200154905092915050565b600160a060020a0381166000908152600f6020526040812054606091829080831515610b01576040805160008152602081019091529450610b71565b83604051908082528060200260200182016040528015610b2b578160200160208202803883390190505b50925060009150600090505b83811015610b6d57610b498682610a78565b8383815181101515610b5757fe5b6020908102909101015260019182019101610b37565b8294505b50505050919050565b80610b853382611636565b1515610b9057600080fd5b610bac84848460206040519081016040528060008152506110fb565b50505050565b600090815260208190526040902054600160a060020a0316151590565b6000610bd96108e0565b8210610be457600080fd5b6008805483908110610bf257fe5b90600052602060002001549050919050565b600c805482908110610c1257fe5b60009182526020909120600290910201805460019091015490915082565b600081815260208190526040812054600160a060020a0316801515610c5457600080fd5b92915050565b6000806000806000806000610c6d611ce1565b600d80548a908110610c7b57fe5b906000526020600020906006020160c060405190810160405290816000820160009054906101000a9004600160a060020a0316600160a060020a0316600160a060020a03168152602001600182015460001916600019168152602001600282015460001916600019168152602001600382015481526020016004820154815260200160058201548152505090508060000151975080602001519650806040015195508060600151945080608001519350600e60008a81526020019081526020016000205492508060a00151915050919395979092949650565b6000600160a060020a0382161515610d6b57600080fd5b50600160a060020a031660009081526002602052604090205490565b600b54600160a060020a03163314610d9e57600080fd5b600b54604051600160a060020a03909116907ff8df31144d9c2f0f6b59d69b8b98abd5459d07f2742c4df920b25aae33c6482090600090a2600b805473ffffffffffffffffffffffffffffffffffffffff19169055565b600080610e00611cca565b600c805485908110610e0e57fe5b600091825260209182902060408051808201909152600290920201805480835260019091015491909201819052909590945092505050565b610e4e611ce1565b600b54600090600160a060020a03163314610e6857600080fd5b50506040805160c081018252600160a060020a0388811682526020808301898152838501898152606085018981526080860189815260a08701898152600d805460018101825560009190915288517fd7b6990105719101dabeb77144f2a3385c8033acd3af97e9423a695e81ad1eb560068302908101805473ffffffffffffffffffffffffffffffffffffffff191692909a169190911790985594517fd7b6990105719101dabeb77144f2a3385c8033acd3af97e9423a695e81ad1eb688015592517fd7b6990105719101dabeb77144f2a3385c8033acd3af97e9423a695e81ad1eb787015590517fd7b6990105719101dabeb77144f2a3385c8033acd3af97e9423a695e81ad1eb8860155517fd7b6990105719101dabeb77144f2a3385c8033acd3af97e9423a695e81ad1eb9850155517fd7b6990105719101dabeb77144f2a3385c8033acd3af97e9423a695e81ad1eba9093019290925583518281529351929391927f379a07a38bf096930c6d57649755929ea36a303509514a5580b7b2f8151d18af9281900390910190a15050505050505050565b600b54600160a060020a031681565b60058054604080516020601f600260001961010060018816150201909516949094049384018190048102820181019092528281526060939092909183018282801561077a5780601f1061074f5761010080835404028352916020019161077a565b600d5490565b600160a060020a03821633141561108d57600080fd5b336000818152600360209081526040808320600160a060020a03871680855290835292819020805460ff1916861515908117909155815190815290519293927f17307eab39ab6107e8899845ad3d59bd9653f200f220920489ca2b5937696c31929181900390910190a35050565b816111063382611636565b151561111157600080fd5b61111c8585856108e6565b611128858585856118c5565b151561113357600080fd5b5050505050565b6000611144611ce1565b600d80548490811061115257fe5b60009182526020918290206040805160c0810182526006939093029091018054600160a060020a031683526001810154938301939093526002830154908201526003820154606082018190526004830154608083015260059092015460a0909101529392505050565b6111c3611ce1565b60006111cd611cca565b600080600d868154811015156111df57fe5b600091825260208083206040805160c08101825260069094029091018054600160a060020a031684526001810154848401526002810154848301526003810154606085018190526004820154608086015260059091015460a085019081528b8652600e90935293205490519197509195501161125a57600080fd5b3484111561126757600080fd5b6040805180820190915286815260208101858152600c80546001810182556000919091528251600282027fdf6966c971051c3d54ec59162606531493a51404a002842f56009d7e5cf4a8c781019190915591517fdf6966c971051c3d54ec59162606531493a51404a002842f56009d7e5cf4a8c89092019190915590935091506112f13383611a4e565b6000868152600e6020908152604080832080546001908101909155338452600f9092529091208054909101905561132e348563ffffffff611a9d16565b600087815260106020526040812080548701905590915081111561137b57604051339082156108fc029083906000818181858888f19350505050158015611379573d6000803e3d6000fd5b505b505050505050565b606061138e82610bb2565b151561139957600080fd5b6000828152600a602090815260409182902080548351601f60026000196101006001861615020190931692909204918201849004840281018401909452808452909183018282801561142c5780601f106114015761010080835404028352916020019161142c565b820191906000526020600020905b81548152906001019060200180831161140f57829003601f168201915b50505050509050919050565b611440611ce1565b6000808361144c611ce1565b600d80548390811061145a57fe5b60009182526020918290206040805160c08101825260069093029091018054600160a060020a031680845260018201549484019490945260028101549183019190915260038101546060830152600481015460808301526005015460a0820152915033146114c757600080fd5b600d8054879081106114d557fe5b600091825260208083206040805160c08101825260069094029091018054600160a060020a0316845260018101548484015260028101548483015260038101546060850152600481015460808501526005015460a0840152898452601090915290912054815191965094509250303184111561155057600080fd5b600086815260106020526040812055600160a060020a03831615156115af57600b54604051600160a060020a039091169085156108fc029086906000818181858888f193505050501580156115a9573d6000803e3d6000fd5b5061137b565b604051600160a060020a0384169085156108fc029086906000818181858888f19350505050158015611379573d6000803e3d6000fd5b600160a060020a03918216600090815260036020908152604080832093909416825291909152205460ff1690565b600b54600160a060020a0316331461162a57600080fd5b61163381611aaf565b50565b60008061164283610c30565b905080600160a060020a031684600160a060020a0316148061167d575083600160a060020a031661167284610785565b600160a060020a0316145b8061168d575061168d81856115e5565b949350505050565b81600160a060020a03166116a882610c30565b600160a060020a0316146116bb57600080fd5b600081815260016020526040902054600160a060020a03161561173f576000818152600160209081526040808320805473ffffffffffffffffffffffffffffffffffffffff1916905580518481529051600160a060020a038616927f8c5be1e5ebec7d5bd14f71427d1e84f3dd0314c0f7b2291e5b200ac8c7c3b925928290030190a35b5050565b60008060006117528585611b2d565b600084815260076020908152604080832054600160a060020a038916845260069092529091205490935061178d90600163ffffffff611a9d16565b600160a060020a0386166000908152600660205260409020805491935090839081106117b557fe5b90600052602060002001549050806006600087600160a060020a0316600160a060020a03168152602001908152602001600020848154811015156117f557fe5b6000918252602080832090910192909255600160a060020a038716815260069091526040812080548490811061182757fe5b6000918252602080832090910192909255600160a060020a038716815260069091526040902080549061185e906000198301611d16565b50600093845260076020526040808520859055908452909220555050565b60006118888383611bc2565b50600160a060020a039091166000908152600660209081526040808320805460018101825590845282842081018590559383526007909152902055565b6000806118da85600160a060020a0316611c51565b15156118e95760019150611a45565b84600160a060020a031663f0b9e5ba8786866040518463ffffffff167c01000000000000000000000000000000000000000000000000000000000281526004018084600160a060020a0316600160a060020a0316815260200183815260200180602001828103825283818151815260200191508051906020019080838360005b83811015611981578181015183820152602001611969565b50505050905090810190601f1680156119ae5780820380516001836020036101000a031916815260200191505b50945050505050602060405180830381600087803b1580156119cf57600080fd5b505af11580156119e3573d6000803e3d6000fd5b505050506040513d60208110156119f957600080fd5b50517fffffffff0000000000000000000000000000000000000000000000000000000081167ff0b9e5ba0000000000000000000000000000000000000000000000000000000014925090505b50949350505050565b611a588282611c59565b600880546000838152600960205260408120829055600182018355919091527ff3f7a9fe364faab93b216da50a3214154f22a0a2b415b23a84c8169e8b636ee3015550565b600082821115611aa957fe5b50900390565b600160a060020a0381161515611ac457600080fd5b600b54604051600160a060020a038084169216907f8be0079c531659141344cd1fd0a4f28419497f9722a3daafe3b4186f6b6457e090600090a3600b805473ffffffffffffffffffffffffffffffffffffffff1916600160a060020a0392909216919091179055565b81600160a060020a0316611b4082610c30565b600160a060020a031614611b5357600080fd5b600160a060020a038216600090815260026020526040902054611b7d90600163ffffffff611a9d16565b600160a060020a039092166000908152600260209081526040808320949094559181529081905220805473ffffffffffffffffffffffffffffffffffffffff19169055565b600081815260208190526040902054600160a060020a031615611be457600080fd5b600081815260208181526040808320805473ffffffffffffffffffffffffffffffffffffffff1916600160a060020a03871690811790915583526002909152902054611c31906001611cbd565b600160a060020a0390921660009081526002602052604090209190915550565b6000903b1190565b600160a060020a0382161515611c6e57600080fd5b611c78828261187c565b604080518281529051600160a060020a038416916000917fddf252ad1be2c89b69c2b068fc378daa952ba7f163c4a11628f55a4df523b3ef9181900360200190a35050565b81810182811015610c5457fe5b604080518082019091526000808252602082015290565b6040805160c081018252600080825260208201819052918101829052606081018290526080810182905260a081019190915290565b81548183558181111561088d5760008381526020902061088d91810190830161078291905b80821115611d4f5760008155600101611d3b565b50905600a165627a7a723058202b7f66327a7b367fa8623582005cac34f7397bb36520ea17f92fe514557daef50029",
  "source": "pragma solidity ^0.4.23;\n\nimport \"zeppelin-solidity/contracts/token/ERC721/ERC721Token.sol\";\nimport \"zeppelin-solidity/contracts/ownership/Ownable.sol\";\n\ncontract StubToken is ERC721Token, Ownable {\n\n    constructor(string _name,string _symbol)\n    ERC721Token(_name, _symbol) public {\n\n    }\n\n    event NewEvent(uint _eventId);\n\n    struct Ticket {\n        uint eventId;\n        uint price;\n    }\n\n    struct Event {\n        address artist;\n        bytes32 name;\n        bytes32 location;\n        uint price;\n        uint time;\n        uint salesCap;\n    }\n\n    Ticket[] public tickets;\n    Event[] public events;\n\n    mapping (uint => uint) private totalEventSales;\n    mapping (address => uint) private totalOwnedTickets;\n    mapping (uint => uint) private eventRevenue;\n\n    modifier onlyArtist(uint _eventId) {\n        Event memory _event = events[_eventId];\n        require(msg.sender == _event.artist);\n        _;\n    }\n\n    /// @dev Returns the general ticket details for a given ticket ID\n    /// @param _ticketId ID of the ticket (ERC721 token)\n    function getTicket(uint _ticketId) public view returns(uint eventId, uint price) {\n        Ticket memory _ticket = tickets[_ticketId];\n        eventId = _ticket.eventId;\n        price = _ticket.price;\n    }\n\n    /// @dev Returns the event for a given event ID\n    /// @param _eventId ID of the event\n    function getEvent(uint _eventId) public view returns(\n            address artist,\n            bytes32 name,\n            bytes32 location,\n            uint price,\n            uint time,\n            uint sales,\n            uint salesCap\n        ) {\n        Event memory _event = events[_eventId];\n\n        artist = _event.artist;\n        name = _event.name;\n        location = _event.location;\n        price = _event.price;\n        time = _event.time;\n        sales = totalEventSales[_eventId];\n        salesCap = _event.salesCap;\n    }\n\n    function getTicketDetails(uint _ticketId) public view returns(\n            address artist,\n            bytes32 name,\n            bytes32 location,\n            uint price,\n            uint time\n        ) {\n        Ticket memory _ticket = tickets[_ticketId];\n        Event memory _event = events[_ticket.eventId];\n\n        artist = _event.artist;\n        name = _event.name;\n        location = _event.location;\n        price = _event.price;\n        time = _event.time;\n    }\n\n    /// @dev Used to create a new Event\n    /// @param _artist Address of the artist to recieve the funds\n    /// @param _name Name of the event (32 Character limit)\n    /// @param _location Name of the location for the event (32 Character limit)\n    /// @param _price Ticket price for the event\n    /// @param _time Timestamp in Epoch for the event\n    /// @param _salesCap Number of tickets allowed to be sold for the event\n    function createEvent(address _artist, bytes32 _name, bytes32 _location, uint _price, uint _time, uint _salesCap) public onlyOwner {\n        Event memory _event = Event({\n            artist: _artist,\n            name: _name,\n            location: _location,\n            price: _price,\n            time: _time,\n            salesCap: _salesCap\n        });\n        uint _eventId = events.push(_event) - 1;\n        emit NewEvent(_eventId);\n    }\n\n    /// @dev Used to purchase a ticket for a given event\n    /// @param _eventId ID of the event\n    function purchaseTicket(uint _eventId) public payable {\n        Event memory _event = events[_eventId];\n        uint sellingPrice = _event.price;\n\n        require(_event.salesCap > totalEventSales[_eventId]);\n        require(msg.value >= sellingPrice);\n\n        Ticket memory _ticket = Ticket({\n            eventId: _eventId,\n            price: sellingPrice\n        });\n\n        uint _ticketId = tickets.push(_ticket) - 1;\n        _mint(msg.sender, _ticketId);\n        totalEventSales[_eventId]++;\n        totalOwnedTickets[msg.sender]++;\n\n        uint excess = msg.value.sub(sellingPrice);\n        eventRevenue[_eventId] += sellingPrice;\n        if (excess > 0) {\n            msg.sender.transfer(excess);\n        }\n    }\n\n    /// @dev Used to get the price of a given ticket\n    /// @param _eventId ID of the event\n    function priceOf(uint _eventId) public view returns (uint _price) {\n        Event memory _event = events[_eventId];\n        return _event.price;\n    }\n\n    /// @dev Get the ID's of the tickets owned by someone\n    /// @param _owner Address of someone\n    function ticketsOf(address _owner) public view returns(uint[]) {\n        uint tokenCount = totalOwnedTickets[_owner];\n        if (tokenCount == 0) {\n            return new uint[](0);\n        } else {\n            uint[] memory result = new uint[](tokenCount);\n            uint resultIndex = 0;\n\n            for (uint i = 0; i < tokenCount; i++) {\n                result[resultIndex] = tokenOfOwnerByIndex(_owner, i);\n                resultIndex++;\n            }\n            return result;\n        }\n    }\n\n    /// @dev Gets the total number of events for enumeration purposes\n    function totalEventSupply() public view returns (uint256 _totalSupply) {\n        _totalSupply = events.length;\n    }\n\n    /// @dev Returns the balance value for an event\n    function withdrawBalance(uint _eventId) public onlyArtist(_eventId) {\n        Event memory _event = events[_eventId];\n        uint amount = eventRevenue[_eventId];\n        address to = _event.artist;\n\n        require(amount <= address(this).balance);\n        eventRevenue[_eventId] = 0; // Empty event revenue\n\n        if (to == address(0)) {\n            owner.transfer(amount); // funds are put into owners wallet IF event was created wrong\n        } else {\n            to.transfer(amount);\n        }\n    }\n}\n",
  "sourcePath": "/Users/nathan/Projects/misc/stubber/contracts/StubToken.sol",
  "compiler": {
    "name": "solc",
    "version": "0.4.24+commit.e67f0147.Emscripten.clang"
  },
  "schemaVersion": "2.0.1",
  "updatedAt": "2018-06-28T16:29:49.929Z"
}