{
  "contractName": "StubToken",
  "abi": [
    {
      "constant": true,
      "inputs": [],
      "name": "name",
      "outputs": [
        {
          "name": "",
          "type": "string"
        }
      ],
      "payable": false,
      "stateMutability": "view",
      "type": "function"
    },
    {
      "constant": true,
      "inputs": [
        {
          "name": "_tokenId",
          "type": "uint256"
        }
      ],
      "name": "getApproved",
      "outputs": [
        {
          "name": "",
          "type": "address"
        }
      ],
      "payable": false,
      "stateMutability": "view",
      "type": "function"
    },
    {
      "constant": false,
      "inputs": [
        {
          "name": "_to",
          "type": "address"
        },
        {
          "name": "_tokenId",
          "type": "uint256"
        }
      ],
      "name": "approve",
      "outputs": [],
      "payable": false,
      "stateMutability": "nonpayable",
      "type": "function"
    },
    {
      "constant": true,
      "inputs": [
        {
          "name": "",
          "type": "uint256"
        }
      ],
      "name": "events",
      "outputs": [
        {
          "name": "artist",
          "type": "address"
        },
        {
          "name": "id",
          "type": "bytes32"
        },
        {
          "name": "name",
          "type": "bytes32"
        },
        {
          "name": "locationLat",
          "type": "bytes32"
        },
        {
          "name": "locationLng",
          "type": "bytes32"
        },
        {
          "name": "price",
          "type": "uint256"
        },
        {
          "name": "time",
          "type": "uint256"
        },
        {
          "name": "salesCap",
          "type": "uint256"
        }
      ],
      "payable": false,
      "stateMutability": "view",
      "type": "function"
    },
    {
      "constant": true,
      "inputs": [],
      "name": "totalSupply",
      "outputs": [
        {
          "name": "",
          "type": "uint256"
        }
      ],
      "payable": false,
      "stateMutability": "view",
      "type": "function"
    },
    {
      "constant": false,
      "inputs": [
        {
          "name": "_from",
          "type": "address"
        },
        {
          "name": "_to",
          "type": "address"
        },
        {
          "name": "_tokenId",
          "type": "uint256"
        }
      ],
      "name": "transferFrom",
      "outputs": [],
      "payable": false,
      "stateMutability": "nonpayable",
      "type": "function"
    },
    {
      "constant": true,
      "inputs": [
        {
          "name": "_owner",
          "type": "address"
        },
        {
          "name": "_index",
          "type": "uint256"
        }
      ],
      "name": "tokenOfOwnerByIndex",
      "outputs": [
        {
          "name": "",
          "type": "uint256"
        }
      ],
      "payable": false,
      "stateMutability": "view",
      "type": "function"
    },
    {
      "constant": false,
      "inputs": [
        {
          "name": "_from",
          "type": "address"
        },
        {
          "name": "_to",
          "type": "address"
        },
        {
          "name": "_tokenId",
          "type": "uint256"
        }
      ],
      "name": "safeTransferFrom",
      "outputs": [],
      "payable": false,
      "stateMutability": "nonpayable",
      "type": "function"
    },
    {
      "constant": true,
      "inputs": [
        {
          "name": "_tokenId",
          "type": "uint256"
        }
      ],
      "name": "exists",
      "outputs": [
        {
          "name": "",
          "type": "bool"
        }
      ],
      "payable": false,
      "stateMutability": "view",
      "type": "function"
    },
    {
      "constant": true,
      "inputs": [
        {
          "name": "_index",
          "type": "uint256"
        }
      ],
      "name": "tokenByIndex",
      "outputs": [
        {
          "name": "",
          "type": "uint256"
        }
      ],
      "payable": false,
      "stateMutability": "view",
      "type": "function"
    },
    {
      "constant": true,
      "inputs": [
        {
          "name": "",
          "type": "uint256"
        }
      ],
      "name": "tickets",
      "outputs": [
        {
          "name": "eventId",
          "type": "uint256"
        },
        {
          "name": "price",
          "type": "uint256"
        }
      ],
      "payable": false,
      "stateMutability": "view",
      "type": "function"
    },
    {
      "constant": true,
      "inputs": [
        {
          "name": "_tokenId",
          "type": "uint256"
        }
      ],
      "name": "ownerOf",
      "outputs": [
        {
          "name": "",
          "type": "address"
        }
      ],
      "payable": false,
      "stateMutability": "view",
      "type": "function"
    },
    {
      "constant": true,
      "inputs": [
        {
          "name": "_owner",
          "type": "address"
        }
      ],
      "name": "balanceOf",
      "outputs": [
        {
          "name": "",
          "type": "uint256"
        }
      ],
      "payable": false,
      "stateMutability": "view",
      "type": "function"
    },
    {
      "constant": false,
      "inputs": [],
      "name": "renounceOwnership",
      "outputs": [],
      "payable": false,
      "stateMutability": "nonpayable",
      "type": "function"
    },
    {
      "constant": true,
      "inputs": [],
      "name": "owner",
      "outputs": [
        {
          "name": "",
          "type": "address"
        }
      ],
      "payable": false,
      "stateMutability": "view",
      "type": "function"
    },
    {
      "constant": true,
      "inputs": [],
      "name": "symbol",
      "outputs": [
        {
          "name": "",
          "type": "string"
        }
      ],
      "payable": false,
      "stateMutability": "view",
      "type": "function"
    },
    {
      "constant": false,
      "inputs": [
        {
          "name": "_to",
          "type": "address"
        },
        {
          "name": "_approved",
          "type": "bool"
        }
      ],
      "name": "setApprovalForAll",
      "outputs": [],
      "payable": false,
      "stateMutability": "nonpayable",
      "type": "function"
    },
    {
      "constant": false,
      "inputs": [
        {
          "name": "_from",
          "type": "address"
        },
        {
          "name": "_to",
          "type": "address"
        },
        {
          "name": "_tokenId",
          "type": "uint256"
        },
        {
          "name": "_data",
          "type": "bytes"
        }
      ],
      "name": "safeTransferFrom",
      "outputs": [],
      "payable": false,
      "stateMutability": "nonpayable",
      "type": "function"
    },
    {
      "constant": true,
      "inputs": [
        {
          "name": "_tokenId",
          "type": "uint256"
        }
      ],
      "name": "tokenURI",
      "outputs": [
        {
          "name": "",
          "type": "string"
        }
      ],
      "payable": false,
      "stateMutability": "view",
      "type": "function"
    },
    {
      "constant": true,
      "inputs": [
        {
          "name": "_owner",
          "type": "address"
        },
        {
          "name": "_operator",
          "type": "address"
        }
      ],
      "name": "isApprovedForAll",
      "outputs": [
        {
          "name": "",
          "type": "bool"
        }
      ],
      "payable": false,
      "stateMutability": "view",
      "type": "function"
    },
    {
      "constant": false,
      "inputs": [
        {
          "name": "_newOwner",
          "type": "address"
        }
      ],
      "name": "transferOwnership",
      "outputs": [],
      "payable": false,
      "stateMutability": "nonpayable",
      "type": "function"
    },
    {
      "inputs": [
        {
          "name": "_name",
          "type": "string"
        },
        {
          "name": "_symbol",
          "type": "string"
        }
      ],
      "payable": false,
      "stateMutability": "nonpayable",
      "type": "constructor"
    },
    {
      "anonymous": false,
      "inputs": [
        {
          "indexed": false,
          "name": "_eventId",
          "type": "uint256"
        },
        {
          "indexed": false,
          "name": "_id",
          "type": "bytes32"
        }
      ],
      "name": "NewEvent",
      "type": "event"
    },
    {
      "anonymous": false,
      "inputs": [
        {
          "indexed": true,
          "name": "previousOwner",
          "type": "address"
        }
      ],
      "name": "OwnershipRenounced",
      "type": "event"
    },
    {
      "anonymous": false,
      "inputs": [
        {
          "indexed": true,
          "name": "previousOwner",
          "type": "address"
        },
        {
          "indexed": true,
          "name": "newOwner",
          "type": "address"
        }
      ],
      "name": "OwnershipTransferred",
      "type": "event"
    },
    {
      "anonymous": false,
      "inputs": [
        {
          "indexed": true,
          "name": "_from",
          "type": "address"
        },
        {
          "indexed": true,
          "name": "_to",
          "type": "address"
        },
        {
          "indexed": false,
          "name": "_tokenId",
          "type": "uint256"
        }
      ],
      "name": "Transfer",
      "type": "event"
    },
    {
      "anonymous": false,
      "inputs": [
        {
          "indexed": true,
          "name": "_owner",
          "type": "address"
        },
        {
          "indexed": true,
          "name": "_approved",
          "type": "address"
        },
        {
          "indexed": false,
          "name": "_tokenId",
          "type": "uint256"
        }
      ],
      "name": "Approval",
      "type": "event"
    },
    {
      "anonymous": false,
      "inputs": [
        {
          "indexed": true,
          "name": "_owner",
          "type": "address"
        },
        {
          "indexed": true,
          "name": "_operator",
          "type": "address"
        },
        {
          "indexed": false,
          "name": "_approved",
          "type": "bool"
        }
      ],
      "name": "ApprovalForAll",
      "type": "event"
    },
    {
      "constant": true,
      "inputs": [
        {
          "name": "_ticketId",
          "type": "uint256"
        }
      ],
      "name": "getTicket",
      "outputs": [
        {
          "name": "eventId",
          "type": "uint256"
        },
        {
          "name": "price",
          "type": "uint256"
        }
      ],
      "payable": false,
      "stateMutability": "view",
      "type": "function"
    },
    {
      "constant": true,
      "inputs": [
        {
          "name": "_eventId",
          "type": "uint256"
        }
      ],
      "name": "getEvent",
      "outputs": [
        {
          "name": "artist",
          "type": "address"
        },
        {
          "name": "id",
          "type": "bytes32"
        },
        {
          "name": "name",
          "type": "bytes32"
        },
        {
          "name": "locationLat",
          "type": "bytes32"
        },
        {
          "name": "locationLng",
          "type": "bytes32"
        },
        {
          "name": "price",
          "type": "uint256"
        },
        {
          "name": "time",
          "type": "uint256"
        },
        {
          "name": "sales",
          "type": "uint256"
        },
        {
          "name": "salesCap",
          "type": "uint256"
        }
      ],
      "payable": false,
      "stateMutability": "view",
      "type": "function"
    },
    {
      "constant": true,
      "inputs": [
        {
          "name": "_ticketId",
          "type": "uint256"
        }
      ],
      "name": "getTicketDetails",
      "outputs": [
        {
          "name": "artist",
          "type": "address"
        },
        {
          "name": "id",
          "type": "bytes32"
        },
        {
          "name": "name",
          "type": "bytes32"
        },
        {
          "name": "locationLat",
          "type": "bytes32"
        },
        {
          "name": "locationLng",
          "type": "bytes32"
        },
        {
          "name": "price",
          "type": "uint256"
        },
        {
          "name": "time",
          "type": "uint256"
        }
      ],
      "payable": false,
      "stateMutability": "view",
      "type": "function"
    },
    {
      "constant": false,
      "inputs": [
        {
          "name": "_artist",
          "type": "address"
        },
        {
          "name": "_id",
          "type": "bytes32"
        },
        {
          "name": "_name",
          "type": "bytes32"
        },
        {
          "name": "_locationLat",
          "type": "bytes32"
        },
        {
          "name": "_locationLng",
          "type": "bytes32"
        },
        {
          "name": "_price",
          "type": "uint256"
        },
        {
          "name": "_time",
          "type": "uint256"
        },
        {
          "name": "_salesCap",
          "type": "uint256"
        }
      ],
      "name": "createEvent",
      "outputs": [],
      "payable": false,
      "stateMutability": "nonpayable",
      "type": "function"
    },
    {
      "constant": false,
      "inputs": [
        {
          "name": "_id",
          "type": "bytes32"
        }
      ],
      "name": "purchaseTicket",
      "outputs": [],
      "payable": true,
      "stateMutability": "payable",
      "type": "function"
    },
    {
      "constant": true,
      "inputs": [
        {
          "name": "_eventId",
          "type": "uint256"
        }
      ],
      "name": "priceOf",
      "outputs": [
        {
          "name": "_price",
          "type": "uint256"
        }
      ],
      "payable": false,
      "stateMutability": "view",
      "type": "function"
    },
    {
      "constant": true,
      "inputs": [
        {
          "name": "_owner",
          "type": "address"
        }
      ],
      "name": "ticketsOf",
      "outputs": [
        {
          "name": "",
          "type": "uint256[]"
        }
      ],
      "payable": false,
      "stateMutability": "view",
      "type": "function"
    },
    {
      "constant": true,
      "inputs": [],
      "name": "totalEventSupply",
      "outputs": [
        {
          "name": "_totalSupply",
          "type": "uint256"
        }
      ],
      "payable": false,
      "stateMutability": "view",
      "type": "function"
    },
    {
      "constant": true,
      "inputs": [],
      "name": "getAllEvents",
      "outputs": [
        {
          "name": "",
          "type": "address[]"
        },
        {
          "name": "",
          "type": "bytes32[]"
        },
        {
          "name": "",
          "type": "bytes32[]"
        },
        {
          "name": "",
          "type": "uint256[]"
        },
        {
          "name": "",
          "type": "uint256[]"
        },
        {
          "name": "",
          "type": "uint256[]"
        },
        {
          "name": "",
          "type": "uint256[]"
        }
      ],
      "payable": false,
      "stateMutability": "view",
      "type": "function"
    },
    {
      "constant": false,
      "inputs": [
        {
          "name": "_eventId",
          "type": "uint256"
        }
      ],
      "name": "withdrawBalance",
      "outputs": [],
      "payable": false,
      "stateMutability": "nonpayable",
      "type": "function"
    }
  ],
  "bytecode": "0x60806040523480156200001157600080fd5b50604051620025af380380620025af8339810160405280516020808301519183018051909392909201918391839162000051916004919085019062000085565b5080516200006790600590602084019062000085565b5050600b8054600160a060020a03191633179055506200012a915050565b828054600181600116156101000203166002900490600052602060002090601f016020900481019282601f10620000c857805160ff1916838001178555620000f8565b82800160010185558215620000f8579182015b82811115620000f8578251825591602001919060010190620000db565b50620001069291506200010a565b5090565b6200012791905b8082111562000106576000815560010162000111565b90565b612475806200013a6000396000f30060806040526004361061018a5763ffffffff7c010000000000000000000000000000000000000000000000000000000060003504166306fdde03811461018f578063081812fc14610219578063095ea7b31461024d5780630b79143014610273578063129a4202146102d657806318160ddd146102e157806323b872dd1461030857806324c14160146103325780632f745c591461038c57806331657926146103b057806342842e0e146104215780634f558e791461044b5780634f6ccce71461047757806350b447121461048f5780636352211e146104c05780636d1884e0146104d857806370a0823114610541578063715018a6146105625780637dc379fa146105775780638da5cb5b1461058f57806395d89b41146105a4578063a098300a146105b9578063a22cb465146105ce578063a3672340146105f4578063b88d4fde1461062a578063b9186d7d14610699578063c27a500d146106b1578063c87b56dd146108b8578063da76d5cd146108d0578063e985e9c5146108e8578063f2fde38b1461090f575b600080fd5b34801561019b57600080fd5b506101a4610930565b6040805160208082528351818301528351919283929083019185019080838360005b838110156101de5781810151838201526020016101c6565b50505050905090810190601f16801561020b5780820380516001836020036101000a031916815260200191505b509250505060405180910390f35b34801561022557600080fd5b506102316004356109c7565b60408051600160a060020a039092168252519081900360200190f35b34801561025957600080fd5b50610271600160a060020a03600435166024356109e2565b005b34801561027f57600080fd5b5061028b600435610ad4565b60408051600160a060020a0390991689526020890197909752878701959095526060870193909352608086019190915260a085015260c084015260e083015251908190036101000190f35b610271600435610b32565b3480156102ed57600080fd5b506102f6610d22565b60408051918252519081900360200190f35b34801561031457600080fd5b50610271600160a060020a0360043581169060243516604435610d28565b34801561033e57600080fd5b5061034a600435610dd7565b60408051600160a060020a0390981688526020880196909652868601949094526060860192909252608085015260a084015260c0830152519081900360e00190f35b34801561039857600080fd5b506102f6600160a060020a0360043516602435610f32565b3480156103bc57600080fd5b506103d1600160a060020a0360043516610f7f565b60408051602080825283518183015283519192839290830191858101910280838360005b8381101561040d5781810151838201526020016103f5565b505050509050019250505060405180910390f35b34801561042d57600080fd5b50610271600160a060020a0360043581169060243516604435611034565b34801561045757600080fd5b5061046360043561106c565b604080519115158252519081900360200190f35b34801561048357600080fd5b506102f6600435611089565b34801561049b57600080fd5b506104a76004356110be565b6040805192835260208301919091528051918290030190f35b3480156104cc57600080fd5b506102316004356110ea565b3480156104e457600080fd5b506104f0600435611114565b60408051600160a060020a03909a168a5260208a0198909852888801969096526060880194909452608087019290925260a086015260c085015260e084015261010083015251908190036101200190f35b34801561054d57600080fd5b506102f6600160a060020a0360043516611246565b34801561056e57600080fd5b50610271611279565b34801561058357600080fd5b506104a76004356112e7565b34801561059b57600080fd5b50610231611338565b3480156105b057600080fd5b506101a4611347565b3480156105c557600080fd5b506102f66113a8565b3480156105da57600080fd5b50610271600160a060020a036004351660243515156113ae565b34801561060057600080fd5b50610271600160a060020a036004351660243560443560643560843560a43560c43560e435611432565b34801561063657600080fd5b50604080516020601f60643560048181013592830184900484028501840190955281845261027194600160a060020a0381358116956024803590921695604435953695608494019181908401838280828437509497506116449650505050505050565b3480156106a557600080fd5b506102f6600435611683565b3480156106bd57600080fd5b506106c6611719565b604051808060200180602001806020018060200180602001806020018060200188810388528f818151815260200191508051906020019060200280838360005b8381101561071e578181015183820152602001610706565b5050505090500188810387528e818151815260200191508051906020019060200280838360005b8381101561075d578181015183820152602001610745565b5050505090500188810386528d818151815260200191508051906020019060200280838360005b8381101561079c578181015183820152602001610784565b5050505090500188810385528c818151815260200191508051906020019060200280838360005b838110156107db5781810151838201526020016107c3565b5050505090500188810384528b818151815260200191508051906020019060200280838360005b8381101561081a578181015183820152602001610802565b5050505090500188810383528a818151815260200191508051906020019060200280838360005b83811015610859578181015183820152602001610841565b50505050905001888103825289818151815260200191508051906020019060200280838360005b83811015610898578181015183820152602001610880565b505050509050019e50505050505050505050505050505060405180910390f35b3480156108c457600080fd5b506101a4600435611a38565b3480156108dc57600080fd5b50610271600435611aed565b3480156108f457600080fd5b50610463600160a060020a0360043581169060243516611ccc565b34801561091b57600080fd5b50610271600160a060020a0360043516611cfa565b60048054604080516020601f60026000196101006001881615020190951694909404938401819004810282018101909252828152606093909290918301828280156109bc5780601f10610991576101008083540402835291602001916109bc565b820191906000526020600020905b81548152906001019060200180831161099f57829003601f168201915b505050505090505b90565b600090815260016020526040902054600160a060020a031690565b60006109ed826110ea565b9050600160a060020a038381169082161415610a0857600080fd5b33600160a060020a0382161480610a245750610a248133611ccc565b1515610a2f57600080fd5b6000610a3a836109c7565b600160a060020a0316141580610a585750600160a060020a03831615155b15610acf57600082815260016020908152604091829020805473ffffffffffffffffffffffffffffffffffffffff1916600160a060020a03878116918217909255835186815293519093918516927f8c5be1e5ebec7d5bd14f71427d1e84f3dd0314c0f7b2291e5b200ac8c7c3b925928290030190a35b505050565b600d805482908110610ae257fe5b600091825260209091206008909102018054600182015460028301546003840154600485015460058601546006870154600790970154600160a060020a0390961697509395929491939092909188565b6000610b3c6123b1565b6000610b466123f5565b600085815260116020526040812054600d8054919650829187908110610b6857fe5b60009182526020808320604080516101008101825260089094029091018054600160a060020a031684526001810154848401526002810154848301526003810154606085015260048101546080850152600581015460a08501819052600682015460c086015260079091015460e085019081528b8652600e909352932054905191975091955011610bf857600080fd5b34841115610c0557600080fd5b6040805180820190915286815260208101858152600c80546001810182556000919091528251600282027fdf6966c971051c3d54ec59162606531493a51404a002842f56009d7e5cf4a8c781019190915591517fdf6966c971051c3d54ec59162606531493a51404a002842f56009d7e5cf4a8c8909201919091559093509150610c8f3383611d1d565b6000868152600e6020908152604080832080546001908101909155338452600f90925290912080549091019055610ccc348563ffffffff611d6c16565b6000878152601060205260408120805487019055909150811115610d1957604051339082156108fc029083906000818181858888f19350505050158015610d17573d6000803e3d6000fd5b505b50505050505050565b60085490565b80610d333382611d7e565b1515610d3e57600080fd5b600160a060020a0384161515610d5357600080fd5b600160a060020a0383161515610d6857600080fd5b610d728483611ddd565b610d7c8483611e8b565b610d868383611fc4565b82600160a060020a031684600160a060020a03167fddf252ad1be2c89b69c2b068fc378daa952ba7f163c4a11628f55a4df523b3ef846040518082815260200191505060405180910390a350505050565b6000806000806000806000610dea6123f5565b610df26123b1565b600c80548b908110610e0057fe5b9060005260206000209060020201604080519081016040529081600082015481526020016001820154815250509150600d8260000151815481101515610e4257fe5b906000526020600020906008020161010060405190810160405290816000820160009054906101000a9004600160a060020a0316600160a060020a0316600160a060020a031681526020016001820154600019166000191681526020016002820154600019166000191681526020016003820154600019166000191681526020016004820154600019166000191681526020016005820154815260200160068201548152602001600782015481525050905080600001519850806020015197508060400151965080606001519550806080015194508060a0015193508060c0015192505050919395979092949650565b6000610f3d83611246565b8210610f4857600080fd5b600160a060020a0383166000908152600660205260409020805483908110610f6c57fe5b9060005260206000200154905092915050565b600160a060020a0381166000908152600f6020526040812054606091829080831515610fbb57604080516000815260208101909152945061102b565b83604051908082528060200260200182016040528015610fe5578160200160208202803883390190505b50925060009150600090505b83811015611027576110038682610f32565b838381518110151561101157fe5b6020908102909101015260019182019101610ff1565b8294505b50505050919050565b8061103f3382611d7e565b151561104a57600080fd5b6110668484846020604051908101604052806000815250611644565b50505050565b600090815260208190526040902054600160a060020a0316151590565b6000611093610d22565b821061109e57600080fd5b60088054839081106110ac57fe5b90600052602060002001549050919050565b600c8054829081106110cc57fe5b60009182526020909120600290910201805460019091015490915082565b600081815260208190526040812054600160a060020a031680151561110e57600080fd5b92915050565b600080600080600080600080600061112a6123b1565b600d80548c90811061113857fe5b906000526020600020906008020161010060405190810160405290816000820160009054906101000a9004600160a060020a0316600160a060020a0316600160a060020a031681526020016001820154600019166000191681526020016002820154600019166000191681526020016003820154600019166000191681526020016004820154600019166000191681526020016005820154815260200160068201548152602001600782015481525050905080600001519950806020015198508060400151975080606001519650806080015195508060a0015194508060c001519350600e60008c81526020019081526020016000205492508060e001519150509193959799909294969850565b6000600160a060020a038216151561125d57600080fd5b50600160a060020a031660009081526002602052604090205490565b600b54600160a060020a0316331461129057600080fd5b600b54604051600160a060020a03909116907ff8df31144d9c2f0f6b59d69b8b98abd5459d07f2742c4df920b25aae33c6482090600090a2600b805473ffffffffffffffffffffffffffffffffffffffff19169055565b6000806112f26123f5565b600c80548590811061130057fe5b600091825260209182902060408051808201909152600290920201805480835260019091015491909201819052909590945092505050565b600b54600160a060020a031681565b60058054604080516020601f60026000196101006001881615020190951694909404938401819004810282018101909252828152606093909290918301828280156109bc5780601f10610991576101008083540402835291602001916109bc565b600d5490565b600160a060020a0382163314156113c457600080fd5b336000818152600360209081526040808320600160a060020a03871680855290835292819020805460ff1916861515908117909155815190815290519293927f17307eab39ab6107e8899845ad3d59bd9653f200f220920489ca2b5937696c31929181900390910190a35050565b61143a6123b1565b506040805161010081018252600160a060020a038a8116825260208083018b81528385018b8152606085018b8152608086018b815260a087018b815260c088018b815260e089018b8152600d805460018101825560009182528b517fd7b6990105719101dabeb77144f2a3385c8033acd3af97e9423a695e81ad1eb560088302908101805473ffffffffffffffffffffffffffffffffffffffff191692909d1691909117909b5597517fd7b6990105719101dabeb77144f2a3385c8033acd3af97e9423a695e81ad1eb68b0181905596517fd7b6990105719101dabeb77144f2a3385c8033acd3af97e9423a695e81ad1eb78b015594517fd7b6990105719101dabeb77144f2a3385c8033acd3af97e9423a695e81ad1eb88a015592517fd7b6990105719101dabeb77144f2a3385c8033acd3af97e9423a695e81ad1eb989015590517fd7b6990105719101dabeb77144f2a3385c8033acd3af97e9423a695e81ad1eba880155517fd7b6990105719101dabeb77144f2a3385c8033acd3af97e9423a695e81ad1ebb870155517fd7b6990105719101dabeb77144f2a3385c8033acd3af97e9423a695e81ad1ebc909501949094558352601182529184902082905583518281529081018b90528351929391927f52fa1c2aa5479f2f82f7573bfee85a82217363b5be5fce77fd64b251cdb63c40929181900390910190a150505050505050505050565b8161164f3382611d7e565b151561165a57600080fd5b611665858585610d28565b6116718585858561200d565b151561167c57600080fd5b5050505050565b600061168d6123b1565b600d80548490811061169b57fe5b600091825260209182902060408051610100810182526008939093029091018054600160a060020a031683526001810154938301939093526002830154908201526003820154606082015260048201546080820152600582015460a08201819052600683015460c083015260079092015460e0909101529392505050565b606080606080606080606060006060806060806060806060600061173b6113a8565b985088604051908082528060200260200182016040528015611767578160200160208202803883390190505b50975088604051908082528060200260200182016040528015611794578160200160208202803883390190505b509650886040519080825280602002602001820160405280156117c1578160200160208202803883390190505b509550886040519080825280602002602001820160405280156117ee578160200160208202803883390190505b5094508860405190808252806020026020018201604052801561181b578160200160208202803883390190505b50935088604051908082528060200260200182016040528015611848578160200160208202803883390190505b50925088604051908082528060200260200182016040528015611875578160200160208202803883390190505b509150600090505b88811015611a2057600d80548290811061189357fe5b60009182526020909120600890910201548851600160a060020a03909116908990839081106118be57fe5b600160a060020a03909216602092830290910190910152600d8054829081106118e357fe5b906000526020600020906008020160010154878281518110151561190357fe5b60209081029091010152600d80548290811061191b57fe5b906000526020600020906008020160020154868281518110151561193b57fe5b60209081029091010152600d80548290811061195357fe5b906000526020600020906008020160050154858281518110151561197357fe5b60209081029091010152600d80548290811061198b57fe5b90600052602060002090600802016006015484828151811015156119ab57fe5b60209081029091018101919091526000828152600e909152604090205483518490839081106119d657fe5b60209081029091010152600d8054829081106119ee57fe5b9060005260206000209060080201600701548282815181101515611a0e57fe5b6020908102909101015260010161187d565b50959e949d50929b5090995097509550909350915050565b6060611a438261106c565b1515611a4e57600080fd5b6000828152600a602090815260409182902080548351601f600260001961010060018616150201909316929092049182018490048402810184019094528084529091830182828015611ae15780601f10611ab657610100808354040283529160200191611ae1565b820191906000526020600020905b815481529060010190602001808311611ac457829003601f168201915b50505050509050919050565b611af56123b1565b60008083611b016123b1565b600d805483908110611b0f57fe5b6000918252602091829020604080516101008101825260089093029091018054600160a060020a03168084526001820154948401949094526002810154918301919091526003810154606083015260048101546080830152600581015460a0830152600681015460c08301526007015460e082015291503314611b9157600080fd5b600d805487908110611b9f57fe5b60009182526020808320604080516101008101825260089094029091018054600160a060020a031684526001810154848401526002810154848301526003810154606085015260048101546080850152600581015460a0850152600681015460c08501526007015460e08401528984526010909152909120548151919650945092503031841115611c2f57600080fd5b600086815260106020526040812055600160a060020a0383161515611c8e57600b54604051600160a060020a039091169085156108fc029086906000818181858888f19350505050158015611c88573d6000803e3d6000fd5b50611cc4565b604051600160a060020a0384169085156108fc029086906000818181858888f19350505050158015610d19573d6000803e3d6000fd5b505050505050565b600160a060020a03918216600090815260036020908152604080832093909416825291909152205460ff1690565b600b54600160a060020a03163314611d1157600080fd5b611d1a81612196565b50565b611d278282612214565b600880546000838152600960205260408120829055600182018355919091527ff3f7a9fe364faab93b216da50a3214154f22a0a2b415b23a84c8169e8b636ee3015550565b600082821115611d7857fe5b50900390565b600080611d8a836110ea565b905080600160a060020a031684600160a060020a03161480611dc5575083600160a060020a0316611dba846109c7565b600160a060020a0316145b80611dd55750611dd58185611ccc565b949350505050565b81600160a060020a0316611df0826110ea565b600160a060020a031614611e0357600080fd5b600081815260016020526040902054600160a060020a031615611e87576000818152600160209081526040808320805473ffffffffffffffffffffffffffffffffffffffff1916905580518481529051600160a060020a038616927f8c5be1e5ebec7d5bd14f71427d1e84f3dd0314c0f7b2291e5b200ac8c7c3b925928290030190a35b5050565b6000806000611e9a8585612278565b600084815260076020908152604080832054600160a060020a0389168452600690925290912054909350611ed590600163ffffffff611d6c16565b600160a060020a038616600090815260066020526040902080549193509083908110611efd57fe5b90600052602060002001549050806006600087600160a060020a0316600160a060020a0316815260200190815260200160002084815481101515611f3d57fe5b6000918252602080832090910192909255600160a060020a0387168152600690915260408120805484908110611f6f57fe5b6000918252602080832090910192909255600160a060020a0387168152600690915260409020805490611fa690600019830161240c565b50600093845260076020526040808520859055908452909220555050565b6000611fd0838361230d565b50600160a060020a039091166000908152600660209081526040808320805460018101825590845282842081018590559383526007909152902055565b60008061202285600160a060020a031661239c565b1515612031576001915061218d565b84600160a060020a031663f0b9e5ba8786866040518463ffffffff167c01000000000000000000000000000000000000000000000000000000000281526004018084600160a060020a0316600160a060020a0316815260200183815260200180602001828103825283818151815260200191508051906020019080838360005b838110156120c95781810151838201526020016120b1565b50505050905090810190601f1680156120f65780820380516001836020036101000a031916815260200191505b50945050505050602060405180830381600087803b15801561211757600080fd5b505af115801561212b573d6000803e3d6000fd5b505050506040513d602081101561214157600080fd5b50517fffffffff0000000000000000000000000000000000000000000000000000000081167ff0b9e5ba0000000000000000000000000000000000000000000000000000000014925090505b50949350505050565b600160a060020a03811615156121ab57600080fd5b600b54604051600160a060020a038084169216907f8be0079c531659141344cd1fd0a4f28419497f9722a3daafe3b4186f6b6457e090600090a3600b805473ffffffffffffffffffffffffffffffffffffffff1916600160a060020a0392909216919091179055565b600160a060020a038216151561222957600080fd5b6122338282611fc4565b604080518281529051600160a060020a038416916000917fddf252ad1be2c89b69c2b068fc378daa952ba7f163c4a11628f55a4df523b3ef9181900360200190a35050565b81600160a060020a031661228b826110ea565b600160a060020a03161461229e57600080fd5b600160a060020a0382166000908152600260205260409020546122c890600163ffffffff611d6c16565b600160a060020a039092166000908152600260209081526040808320949094559181529081905220805473ffffffffffffffffffffffffffffffffffffffff19169055565b600081815260208190526040902054600160a060020a03161561232f57600080fd5b600081815260208181526040808320805473ffffffffffffffffffffffffffffffffffffffff1916600160a060020a0387169081179091558352600290915290205461237c9060016123a4565b600160a060020a0390921660009081526002602052604090209190915550565b6000903b1190565b8181018281101561110e57fe5b6040805161010081018252600080825260208201819052918101829052606081018290526080810182905260a0810182905260c0810182905260e081019190915290565b604080518082019091526000808252602082015290565b815481835581811115610acf57600083815260209020610acf9181019083016109c491905b808211156124455760008155600101612431565b50905600a165627a7a72305820fa32e6e43d3ee2526a8b7de61a39cc6036a67eacc16dcbdc847a36773028b9d10029",
  "source": "pragma solidity ^0.4.23;\n\nimport \"zeppelin-solidity/contracts/token/ERC721/ERC721Token.sol\";\nimport \"zeppelin-solidity/contracts/ownership/Ownable.sol\";\n\ncontract StubToken is ERC721Token, Ownable {\n\n    constructor(string _name,string _symbol)\n    ERC721Token(_name, _symbol) public {\n\n    }\n\n    event NewEvent(uint _eventId, bytes32 _id);\n\n    struct Ticket {\n        uint eventId;\n        uint price;\n    }\n\n    struct Event {\n        address artist;\n        bytes32 id;\n        bytes32 name;\n        bytes32 locationLat;\n        bytes32 locationLng;\n        uint price;\n        uint time;\n        uint salesCap;\n    }\n\n    Ticket[] public tickets;\n    Event[] public events;\n\n    mapping (uint => uint) private totalEventSales;\n    mapping (address => uint) private totalOwnedTickets;\n    mapping (uint => uint) private eventRevenue;\n    mapping (bytes32 => uint) private eventRefIdToEvent;\n\n    modifier onlyArtist(uint _eventId) {\n        Event memory _event = events[_eventId];\n        require(msg.sender == _event.artist);\n        _;\n    }\n\n    /// @dev Returns the general ticket details for a given ticket ID\n    /// @param _ticketId ID of the ticket (ERC721 token)\n    function getTicket(uint _ticketId) public view returns(uint eventId, uint price) {\n        Ticket memory _ticket = tickets[_ticketId];\n        eventId = _ticket.eventId;\n        price = _ticket.price;\n    }\n\n    /// @dev Returns the event for a given event ID\n    /// @param _eventId ID of the event\n    function getEvent(uint _eventId) public view returns(\n            address artist, \n            bytes32 id,\n            bytes32 name, \n            bytes32 locationLat,\n            bytes32 locationLng,\n            uint price, \n            uint time, \n            uint sales, \n            uint salesCap\n        ) {\n        Event memory _event = events[_eventId];\n\n        artist = _event.artist;\n        id = _event.id;\n        name = _event.name;\n        locationLat = _event.locationLat;\n        locationLng = _event.locationLng;\n        price = _event.price;\n        time = _event.time;\n        sales = totalEventSales[_eventId];\n        salesCap = _event.salesCap;\n    }\n\n    function getTicketDetails(uint _ticketId) public view returns(\n            address artist, \n            bytes32 id,\n            bytes32 name, \n            bytes32 locationLat,\n            bytes32 locationLng,\n            uint price, \n            uint time\n        ) {\n        Ticket memory _ticket = tickets[_ticketId];\n        Event memory _event = events[_ticket.eventId];\n\n        artist = _event.artist;\n        id = _event.id;\n        name = _event.name;\n        locationLat = _event.locationLat;\n        locationLng = _event.locationLng;\n        price = _event.price;\n        time = _event.time;\n    }\n\n    /// @dev Used to create a new Event\n    /// @param _artist Address of the artist to recieve the funds\n    /// @param _id Reference identifier for event usable externally\n    /// @param _name Name of the event\n    /// @param _locationLat Lat of the event\n    /// @param _locationLng Lng of the event\n    /// @param _price Ticket price for the event\n    /// @param _time Timestamp in Epoch for the event\n    /// @param _salesCap Number of tickets allowed to be sold for the event\n    function createEvent(\n        address _artist, \n        bytes32 _id,\n        bytes32 _name, \n        bytes32 _locationLat,\n        bytes32 _locationLng,\n        uint _price, \n        uint _time, \n        uint _salesCap\n        ) public {\n        Event memory _event = Event({\n            artist: _artist,\n            id: _id,\n            name: _name,\n            locationLat: _locationLat,\n            locationLng: _locationLng,\n            price: _price,\n            time: _time,\n            salesCap: _salesCap\n        });\n        uint _eventId = events.push(_event) - 1;\n        eventRefIdToEvent[_event.id] = _eventId;\n        emit NewEvent(_eventId, _id);\n    }\n\n    /// @dev Used to purchase a ticket for a given event\n    /// @param _id byte ID of the event\n    function purchaseTicket(bytes32 _id) public payable {\n        uint _eventId = eventRefIdToEvent[_id];\n        Event memory _event = events[_eventId];\n        uint sellingPrice = _event.price;\n\n        require(_event.salesCap > totalEventSales[_eventId]);\n        require(msg.value >= sellingPrice);\n\n        Ticket memory _ticket = Ticket({\n            eventId: _eventId,\n            price: sellingPrice\n        });\n\n        uint _ticketId = tickets.push(_ticket) - 1;\n        _mint(msg.sender, _ticketId);\n        totalEventSales[_eventId]++;\n        totalOwnedTickets[msg.sender]++;\n\n        uint excess = msg.value.sub(sellingPrice);\n        eventRevenue[_eventId] += sellingPrice;\n        if (excess > 0) {\n            msg.sender.transfer(excess);\n        }\n    }\n\n    /// @dev Used to get the price of a given ticket\n    /// @param _eventId ID of the event\n    function priceOf(uint _eventId) public view returns (uint _price) {\n        Event memory _event = events[_eventId];\n        return _event.price;\n    }\n\n    /// @dev Get the ID's of the tickets owned by someone\n    /// @param _owner Address of someone\n    function ticketsOf(address _owner) public view returns(uint[]) {\n        uint tokenCount = totalOwnedTickets[_owner];\n        if (tokenCount == 0) {\n            return new uint[](0);\n        } else {\n            uint[] memory result = new uint[](tokenCount);\n            uint resultIndex = 0;\n\n            for (uint i = 0; i < tokenCount; i++) {\n                result[resultIndex] = tokenOfOwnerByIndex(_owner, i);\n                resultIndex++;\n            }\n            return result;\n        }\n    }\n\n    /// @dev Gets the total number of events for enumeration purposes\n    function totalEventSupply() public view returns (uint256 _totalSupply) {\n        _totalSupply = events.length;\n    }\n\n    /// @dev Retrieves all Events\n    function getAllEvents() public view returns (\n        address[],\n        bytes32[],\n        bytes32[],\n        uint[],\n        uint[],\n        uint[],\n        uint[]\n    ) {\n        uint256 total = totalEventSupply();\n        address[] memory artists = new address[](total);\n        bytes32[] memory ids = new bytes32[](total);\n        bytes32[] memory names = new bytes32[](total);\n        uint[] memory prices = new uint[](total);\n        uint[] memory times = new uint[](total);\n        uint[] memory soldTickets = new uint[](total);\n        uint[] memory salesCaps = new uint[](total);\n\n        for (uint256 i = 0; i < total; i++) {\n            artists[i] = events[i].artist;\n            ids[i] = events[i].id;\n            names[i] = events[i].name;\n            prices[i] = events[i].price;\n            times[i] = events[i].time;\n            soldTickets[i] = totalEventSales[i];\n            salesCaps[i] = events[i].salesCap;\n        }\n\n        return (artists, ids, names, prices, times, soldTickets, salesCaps);\n    }\n\n    /// @dev Returns the balance value for an event\n    function withdrawBalance(uint _eventId) public onlyArtist(_eventId) {\n        Event memory _event = events[_eventId];\n        uint amount = eventRevenue[_eventId];\n        address to = _event.artist;\n\n        require(amount <= address(this).balance);\n        eventRevenue[_eventId] = 0; // Empty event revenue\n\n        if (to == address(0)) {\n            owner.transfer(amount); // funds are put into owners wallet IF event was created wrong\n        } else {\n            to.transfer(amount);\n        }\n    }\n}\n",
  "sourcePath": "/Users/nathan/Projects/smart-contracts/stubber/contract/contracts/StubToken.sol",
  "compiler": {
    "name": "solc",
    "version": "0.4.24+commit.e67f0147.Emscripten.clang"
  },
  "schemaVersion": "2.0.1",
  "updatedAt": "2018-07-13T14:35:33.000Z"
}